:100000000C942A000C943F000C94BC020C943F000A
:100010000C943F000C943F000C943F000C943F0064
:100020000C943F000C943F000C943F000C943F0054
:100030000C943F000C943F000C943F000C943F0044
:100040000C943F000C943F000C943F000C943F0034
:100050000C943F0011241FBECFE5D8E0DEBFCDBF1A
:1000600010E0A0E6B0E0E8EAF5E002C005900D92ED
:10007000A236B107D9F70E9471000C94D2020C94F9
:100080000000982F862F40E0692F0E94B30091E076
:10009000823009F090E0892F0895982F862F41E053
:1000A000692F0E94B30091E0823009F090E0892F1F
:1000B0000895982F862F41E0692F0E94880191E0D2
:1000C000823009F090E0892F0895982F862F40E024
:1000D000692F0E94880191E0823009F090E0892F19
:1000E00008950E9460020E94790280E090E00895E5
:1000F0007894811115C0613080F1643030F06C3F2C
:1001000061F585B78C7F85BF06C085B78C7F85BFBD
:1001100085B7682B65BF8BB780648BBF80E008957F
:100120008130E9F46130E8F0643030F06C3FC9F4BC
:1001300085B7837F85BF0CC085B7837F85BF85B7B3
:1001400070E0660F771F660F771F682B636065BFCF
:100150008BB780688BBF80E0089581E0089581E0CF
:10016000089581E00895EF92FF920F931F938830D6
:1001700008F0BEC06130A9F138F0623009F45EC009
:10018000633009F488C0B6C04130A1F42AB341E01D
:1001900050E060E070E07A018B0104C0EE0CFF1CBF
:1001A000001F111F8A95D2F7D801C701822B8ABB85
:1001B00081E0A9C04111A0C02AB341E050E060E055
:1001C00070E07A018B0104C0EE0CFF1C001F111FB0
:1001D0008A95D2F7D801C701809582238ABB81E036
:1001E00092C04130A1F427B341E050E060E070E0FC
:1001F0007A018B0104C0EE0CFF1C001F111F8A95B1
:10020000D2F7D801C701822B87BB81E07CC04111A6
:1002100075C027B341E050E060E070E07A018B01E7
:1002200004C0EE0CFF1C001F111F8A95D2F7D801E5
:10023000C7018095822387BB81E065C04130A1F46E
:1002400024B341E050E060E070E07A018B0104C02B
:10025000EE0CFF1C001F111F8A95D2F7D801C701B1
:10026000822B84BB81E04FC041114AC024B341E0DE
:1002700050E060E070E07A018B0104C0EE0CFF1CDE
:10028000001F111F8A95D2F7D801C70180958223DC
:1002900084BB81E038C04130A1F421B341E050E09B
:1002A00060E070E07A018B0104C0EE0CFF1C001FBF
:1002B000111F8A95D2F7D801C701822B81BB81E03B
:1002C00022C041111FC021B341E050E060E070E066
:1002D0007A018B0104C0EE0CFF1C001F111F8A95D0
:1002E000D2F7D801C7018095822381BB81E00BC082
:1002F00082E009C082E007C082E005C082E003C05E
:1003000082E001C082E01F910F91FF90EF9008956D
:10031000EF92FF920F931F93883008F0C1C06130B5
:10032000B1F138F0623009F460C0633009F48BC079
:10033000B9C0423008F0B8C04423A1F02BB341E06B
:1003400050E060E070E07A018B0104C0EE0CFF1C0D
:10035000001F111F8A95D2F7D801C701822B8BBBD2
:1003600081E0A9C02BB341E050E060E070E07A0189
:100370008B0104C0EE0CFF1C001F111F8A95D2F7E1
:10038000D801C701809582238BBB81E094C04230A5
:1003900008F08CC04423A1F028B341E050E060E0B5
:1003A00070E07A018B0104C0EE0CFF1C001F111FCE
:1003B0008A95D2F7D801C701822B88BB81E07BC028
:1003C00028B341E050E060E070E07A018B0104C0A6
:1003D000EE0CFF1C001F111F8A95D2F7D801C70130
:1003E0008095822388BB81E066C0423008F060C0FF
:1003F0004423A1F025B341E050E060E070E07A01D1
:100400008B0104C0EE0CFF1C001F111F8A95D2F750
:10041000D801C701822B85BB81E04DC025B341E0E7
:1004200050E060E070E07A018B0104C0EE0CFF1C2C
:10043000001F111F8A95D2F7D801C701809582232A
:1004400085BB81E038C04230A8F54423A1F022B337
:1004500041E050E060E070E07A018B0104C0EE0CF6
:10046000FF1C001F111F8A95D2F7D801C701822BEC
:1004700082BB81E020C022B341E050E060E070E048
:100480007A018B0104C0EE0CFF1C001F111F8A951E
:10049000D2F7D801C7018095822382BB81E00BC0CF
:1004A00082E009C081E007C082E005C082E003C0AD
:1004B00082E001C082E01F910F91FF90EF900895BC
:1004C00060E082E00E944D0061E082E00E944D0009
:1004D00062E082E00E944D0063E082E00E944D00F5
:1004E00063E083E00E94410062E081E00E947800C6
:1004F0000895809160008430E0F4813059F028F054
:10050000823069F0833081F0F4CF60E082E00E94B5
:100510005900EFCF61E082E00E945900EACF62E02B
:1005200082E00E945900E5CF63E082E00E9459001A
:10053000E0CF9CEF980F9430E0F6853071F018F41E
:10054000843031F0D6CF863069F0873081F0D1CF5A
:1005500060E082E00E946500CCCF61E082E00E9412
:100560006500C7CF62E082E00E946500C2CF63E011
:1005700082E00E946500BDCF1F920F920FB60F92CE
:1005800011248F9380916000873020F48F5F8093D7
:10059000600002C0109260008F910F900FBE0F900C
:0805A0001F901895F894FFCF9D
:0205A80007004A
:00000001FF
