:100000000C942A000C9447000C9447000C94470071
:100010000C9447000C9447000C9447000C94470044
:100020000C9447000C9447000C9447000C94470034
:100030000C9447000C94890A0C9447000C94030B11
:100040000C9447000C9447000C9447000C94470014
:100050000C94470011241FBECFE5D8E0DEBFCDBF12
:1000600010E0A0E6B0E0EAE4FCE102C005900D92E9
:10007000A039B107D9F724E0A0E9B0E001C01D9292
:10008000AD39B207E1F70E944B020C94230E0C9499
:100090000000CF93DF93CDB7DEB710929C0480E9C8
:1000A00090E090939B0480939A048DE890E00E94E6
:1000B000390B85ED91E00E942E0C80E990E00E94C2
:1000C0009A0C82E08093920280E690E090938B02FB
:1000D00080938A0281E080938C0210928D028EE6DA
:1000E00090E090938F0280938E0282E08093900242
:1000F0001092910261E081E00E94010262E081E0E1
:100100000E94010261E081E00E941A0262E081E047
:100110000E941A020000DF91CF910895CF93DF93E0
:10012000CDB7DEB727970FB6F894DEBF0FBECDBFB1
:10013000CE0104969A8389831F821E8260E670E056
:100140008DE890E00E94EC008DE890E00E940D0C9C
:1001500080919C04882F90E08130910549F0823095
:100160009105C4F18230910551F0039781F033C0BD
:1001700061E081E00E94330210929C042CC062E096
:1001800081E00E94330283E080939C0424C09E019E
:100190002A5F3F4F89819A81A901BC018DE890E0D7
:1001A0000E94C40B2C813D818E819F81B9010E94E8
:1001B0001F018B838B81882F90E0019739F46EE6C5
:1001C00070E08DE890E00E94EC0001C00000109209
:1001D0009C0401C00000B8CFCF93DF9300D000D0C3
:1001E000CDB7DEB79A8389837C836B830EC08B8106
:1001F0009C81FC018081682F80E990E00E94EF0CD7
:100200008B819C8101969C838B838B819C81FC01DB
:100210008081882361F780E990E00E94C40D9C01F1
:1002200089819A81A9016AE974E00E94800B00002B
:100230000F900F900F900F90DF91CF910895CF9373
:10024000DF93CDB7DEB72D970FB6F894DEBF0FBEA4
:10025000CDBF9B878A877D876C8719821B821A8214
:1002600010C08A819B81880F991F880F991F83571F
:100270009D4F21E0FC0120838A819B8101969B8315
:100280008A8380919202282F880F330B8A819B8169
:100290008217930734F31C8253C019869E01275F8F
:1002A0003F4F8C859D85B9010E94530D1E821D8292
:1002B00035C08D819E81880F991F880F991F8657A1
:1002C0009D4FFC01208131818C81882F90E0820F2D
:1002D000931FFC01808188878D819E81880F991FE3
:1002E000880F991F83579D4FFC018081813089F4CD
:1002F0008885882371F099858885981751F08D81BC
:100300009E81880F991F880F991F83579D4FFC016D
:1003100010828D819E8101969E838D8380919202B1
:10032000282F880F330B8D819E81821793070CF243
:100330008C818F5F8C838A859B8501979B878A87B9
:100340008A859B85892B09F0A8CF1F821FC08F81CA
:10035000082E000C990B880F991F880F991F83573F
:100360009D4FFC018081813071F48F81082E000C3B
:10037000990B880F991F880F991F84579D4FFC0177
:100380008081898308C08F818F5F8F8390919202D3
:100390008F818917E4F289812D960FB6F894DEBF1C
:1003A0000FBECDBFDF91CF910895CF93DF9300D0E3
:1003B00000D0CDB7DEB789834A835B836C8390918D
:1003C0008D0089819817A9F48A81882F90E0813067
:1003D000910571F08230910539F0892B09F009C03F
:1003E00081E080939C0405C082E080939C0401C05E
:1003F000000000000F900F900F900F90DF91CF91B1
:100400000895CF93DF9300D01F92CDB7DEB78A83D4
:100410006B8341E06B818A810E945802898381E06D
:100420009981992309F480E00F900F900F90DF914C
:10043000CF910895CF93DF9300D01F92CDB7DEB751
:100440008A836B8340E06B818A810E944C0489839C
:1004500081E09981992309F480E00F900F900F902B
:10046000DF91CF910895CF93DF9300D01F92CDB746
:10047000DEB78A836B836B818A810E9455058983ED
:1004800081E09981992309F480E00F900F900F90FB
:10049000DF91CF910895CF93DF93CDB7DEB70E9460
:1004A00049000E948E0080E090E0DF91CF91089596
:1004B000CF93DF9300D000D0CDB7DEB78A836B83B4
:1004C0004C836B818A810E94890589838981882375
:1004D00011F08981FCC08A81882F90E081309105DC
:1004E00009F447C0823091051CF4892B49F0ECC017
:1004F0008230910509F476C0039709F4ACC0E4C0DA
:100500008C818130C1F42AE330E08AE390E0FC0181
:1005100060818B81482F50E081E090E0A0E0B0E066
:1005200004C0880F991FAA1FBB1F4A95D2F7862BBC
:10053000F9018083CBC08C818823C9F42AE330E0A1
:100540008AE390E0FC0160818B81482F50E081E0DC
:1005500090E0A0E0B0E004C0880F991FAA1FBB1F65
:100560004A95D2F780958623F9018083AFC084E055
:10057000AEC08C818130C1F427E330E087E390E0A6
:10058000FC0160818B81482F50E081E090E0A0E089
:10059000B0E004C0880F991FAA1FBB1F4A95D2F76D
:1005A000862BF901808392C08C818823C9F427E3CC
:1005B00030E087E390E0FC0160818B81482F50E0C0
:1005C00081E090E0A0E0B0E004C0880F991FAA1F6E
:1005D000BB1F4A95D2F780958623F901808376C0A8
:1005E00084E075C08C818130C1F424E330E084E381
:1005F00090E0FC0160818B81482F50E081E090E029
:10060000A0E0B0E004C0880F991FAA1FBB1F4A9545
:10061000D2F7862BF901808359C08C818823C9F4D5
:1006200024E330E084E390E0FC0160818B81482F7B
:1006300050E081E090E0A0E0B0E004C0880F991F96
:10064000AA1FBB1F4A95D2F780958623F9018083A4
:100650003DC084E03CC08C818130C1F421E330E0B6
:1006600081E390E0FC0160818B81482F50E081E0C4
:1006700090E0A0E0B0E004C0880F991FAA1FBB1F44
:100680004A95D2F7862BF901808320C08C8188237C
:10069000C9F421E330E081E390E0FC0160818B81CB
:1006A000482F50E081E090E0A0E0B0E004C0880F67
:1006B000991FAA1FBB1F4A95D2F780958623F9017F
:1006C000808304C084E003C083E001C080E00F9019
:1006D0000F900F900F90DF91CF910895CF93DF93FC
:1006E00000D000D01F92CDB7DEB78A836B835D83C5
:1006F0004C836B818A810E94890589838981882343
:1007000011F08981C1C08A81882F90E081309105E4
:10071000C9F1823091051CF4892B49F0B4C08230B4
:10072000910509F45AC0039709F482C0ACC089E36B
:1007300090E0FC018081282F30E040E050E08B8188
:10074000682F70E081E090E0A0E0B0E004C0880F86
:10075000991FAA1FBB1F6A95D2F782239323A42354
:10076000B5232B81222F30E004C0B695A79597952D
:1007700087952A95D2F7282F8C819D81FC012083B3
:1007800080E082C086E390E0FC018081282F30E089
:1007900040E050E08B81682F70E081E090E0A0E0C5
:1007A000B0E004C0880F991FAA1FBB1F6A95D2F73B
:1007B00082239323A423B5232B81222F30E004C06E
:1007C000B695A795979587952A95D2F7282F8C816E
:1007D0009D81FC01208380E057C083E390E0FC0111
:1007E0008081282F30E040E050E08B81682F70E05E
:1007F00081E090E0A0E0B0E004C0880F991FAA1F3C
:10080000BB1F6A95D2F782239323A423B5232B81A0
:10081000222F30E004C0B695A795979587952A9525
:10082000D2F7282F8C819D81FC01208380E02CC091
:1008300080E390E0FC018081282F30E040E050E030
:100840008B81682F70E081E090E0A0E0B0E004C010
:10085000880F991FAA1FBB1F6A95D2F78223932383
:10086000A423B5232B81222F30E004C0B695A79591
:10087000979587952A95D2F7282F8C819D81FC0129
:10088000208380E001C083E00F900F900F900F90C5
:100890000F90DF91CF910895CF93DF9300D000D0D8
:1008A000CDB7DEB78A836B834C836B818A810E94CC
:1008B000890589838981882311F08981EFC08C8122
:1008C000823010F084E0EAC08A81882F90E0823084
:1008D000910509F478C0833091052CF4009759F004
:1008E0000197E9F1DAC08330910509F4A0C00497BB
:1008F00009F4D1C0D2C08C818823C1F02BE330E051
:100900008BE390E0FC0160818B81482F50E081E017
:1009100090E0A0E0B0E004C0880F991FAA1FBB1FA1
:100920004A95D2F7862BF9018083B7C02BE330E0DC
:100930008BE390E0FC0160818B81482F50E081E0E7
:1009400090E0A0E0B0E004C0880F991FAA1FBB1F71
:100950004A95D2F780958623F90180839EC08C81C9
:100960008823C1F028E330E088E390E0FC01608157
:100970008B81482F50E081E090E0A0E0B0E004C01F
:10098000880F991FAA1FBB1F4A95D2F7862BF90122
:10099000808383C028E330E088E390E0FC0160813D
:1009A0008B81482F50E081E090E0A0E0B0E004C0EF
:1009B000880F991FAA1FBB1F4A95D2F780958623DF
:1009C000F90180836AC08C818823C1F025E330E07F
:1009D00085E390E0FC0160818B81482F50E081E04D
:1009E00090E0A0E0B0E004C0880F991FAA1FBB1FD1
:1009F0004A95D2F7862BF90180834FC025E330E07A
:100A000085E390E0FC0160818B81482F50E081E01C
:100A100090E0A0E0B0E004C0880F991FAA1FBB1FA0
:100A20004A95D2F780958623F901808336C08C8160
:100A30008823C1F022E330E082E390E0FC01608192
:100A40008B81482F50E081E090E0A0E0B0E004C04E
:100A5000880F991FAA1FBB1F4A95D2F7862BF90151
:100A600080831BC022E330E082E390E0FC016081E0
:100A70008B81482F50E081E090E0A0E0B0E004C01E
:100A8000880F991FAA1FBB1F4A95D2F7809586230E
:100A9000F901808302C083E001C080E00F900F90D5
:100AA0000F900F90DF91CF910895CF93DF9300D0F7
:100AB00000D0CDB7DEB78B836C836C818B810E94B5
:100AC000890589838981882311F089811BC01A8255
:100AD000CE010296AC016C818B810E946E038983EA
:100AE0008981882371F49A8181E0992309F080E05B
:100AF0008A838A81482F6C818B810E944C0480E01C
:100B000001C086E00F900F900F900F90DF91CF9172
:100B10000895CF93DF9300D0CDB7DEB789836A8382
:100B20008A81883010F082E006C08981843010F01C
:100B300083E001C080E00F900F90DF91CF91089586
:100B4000CF93DF9300D000D01F92CDB7DEB79D8347
:100B50008C8319828BE992E00E949A0C1B821A8284
:100B60008C819D81FC0165818C819D81FC0182814C
:100B700093819E012E5F3F4FA9010E94370989830F
:100B80008981882311F08981F4C180E490E02A8171
:100B90003B81232F3327FC01208389E290E02A81C7
:100BA0003B81FC0120838C819D81FC018081882F09
:100BB00090E08130910599F18230910509F45BC094
:100BC000892B09F0A8C08AE290E02AE230E0F9011E
:100BD00020812860FC0120838AE290E02AE230E054
:100BE000F90120812F7EFC0120838C819D81FC01F5
:100BF0008085813051F48AE290E02AE230E0F90108
:100C000020812064FC01208388C08AE290E02AE2EF
:100C100030E0F90120812F7BFC0120837EC08AE235
:100C200090E02AE230E0F90120812061FC0120837C
:100C30008AE290E02AE230E0F9012081277FFC017E
:100C400020838C819D81FC018085813051F48AE272
:100C500090E02AE230E0F90120812068FC01208345
:100C60005CC08AE290E02AE230E0F90120812F772F
:100C7000FC01208352C08AE290E02AE230E0F901D0
:100C800020812860FC0120838AE290E02AE230E0A3
:100C9000F90120812061FC0120838C819D81FC0170
:100CA00080858130E1F48AE290E02AE230E0F901C7
:100CB00020812064FC0120838AE290E02AE230E077
:100CC000F90120812068FC0120838AE290E02AE279
:100CD00030E0F90120812F7DFC0120831EC08AE2D3
:100CE00090E02AE230E0F90120812F7BFC01208393
:100CF0008AE290E02AE230E0F90120812F77FC01BE
:100D000020838AE290E02AE230E0F90120812F7D01
:100D1000FC01208302C082E02CC18C819D81FC01FA
:100D20008581882351F08BE290E02BE230E0F901DD
:100D300020812260FC01208309C08BE290E02BE23D
:100D400030E0F90120812D7FFC01208380E490E0D8
:100D500020E430E0F90120812068FC0120838C81AF
:100D60009D81FC018681882F90E0049708F076C071
:100D70008C819D81FC018681882F90E0A0E0B0E00D
:100D800084709927AA27BB27B695A795979587952D
:100D9000B695A79597958795892B8A2B8B2B51F024
:100DA0008AE290E02AE230E0F90120812460FC012F
:100DB000208309C08AE290E02AE230E0F901208134
:100DC0002B7FFC0120838C819D81FC018681882FF3
:100DD00090E0A0E0B0E082709927AA27BB27B695E3
:100DE000A79597958795892B8A2B8B2B51F080E4BB
:100DF00090E020E430E0F90120812460FC012083B0
:100E000009C080E490E020E430E0F90120812B7FEC
:100E1000FC0120838C819D81FC018681882F90E0DC
:100E2000A0E0B0E081709927AA27BB27892B8A2BE5
:100E30008B2B51F080E490E020E430E0F901208138
:100E40002260FC0120830CC080E490E020E430E0CC
:100E5000F90120812D7FFC01208302C083E089C03D
:100E60008C819D81FC018481882F90E0009739F06E
:100E700099230CF44FC00297029708F04BC08C8165
:100E80009D81FC018481882F90E0A0E0B0E0827019
:100E90009927AA27BB27B695A79597958795892B5C
:100EA0008A2B8B2B51F080E490E020E430E0F901B4
:100EB00020812062FC01208309C080E490E020E4CE
:100EC00030E0F90120812F7DFC0120838C819D8100
:100ED000FC018481882F90E0A0E0B0E08170992728
:100EE000AA27BB27892B8A2B8B2B51F080E490E01B
:100EF00020E430E0F90120812061FC0120830CC056
:100F000080E490E020E430E0F90120812F7EFC01B4
:100F1000208302C084E02DC08C819D81FC018781EB
:100F2000882F90E0009719F0019759F014C080E4E1
:100F300090E020E430E0F9012081277FFC0120834C
:100F40000CC080E490E020E430E0F90120812860CA
:100F5000FC01208302C085E00CC08C819D81FC01D6
:100F600080858093930280919302813009F4789474
:100F700080E00F900F900F900F900F90DF91CF9126
:100F80000895CF93DF9300D0CDB7DEB78A8319825F
:100F9000809193028823F9F400008BE290E0FC0139
:100FA0008081882F90E0A0E0B0E080729927AA2786
:100FB000BB27689414F8B695A795979587951694CE
:100FC000D1F7892B8A2B8B2B41F38CE290E02A817D
:100FD000FC0120832AC080919302813021F5809109
:100FE0009402813019F48CE089831FC080919402AF
:100FF000823019F48DE0898318C081E080939402D7
:1010000084E0809396028AE290E02AE230E0F901DF
:1010100020812064FC0120838CE290E02A81FC0185
:101020002083198202C087E0898389810F900F9005
:10103000DF91CF910895CF93DF9300D000D000D0FF
:10104000CDB7DEB79C838B837E836D8319828D81C0
:101050009E81853F914018F089E0898365C0809129
:101060009302882319F51CC08B819C81892BA1F0E8
:101070001A8280919702909198029E012E5F3F4FB5
:10108000B9010E94530D8A810E94C1078D819E8102
:1010900001979E838D8304C080E00E94C10704C035
:1010A0008D819E81892B01F719823EC08091930228
:1010B0008130C1F580919402813019F48CE08983EC
:1010C00033C080919402823019F48DE089832CC062
:1010D00080919402882319F580919702909198024B
:1010E000892B49F48B819C81FC01808191819093B3
:1010F0009802809397022091990230919A028D81F3
:101100009E81820F931F90939A028093990281E0AF
:101110008093940282E080939602198205C08FE04A
:10112000898302C087E08983898126960FB6F89467
:10113000DEBF0FBECDBFDF91CF910895CF93DF9378
:10114000CDB7DEB729970FB6F894DEBF0FBECDBF7F
:101150009F838E8379876887198280919302882381
:1011600099F51A821D82CE0105960E941509898380
:101170000CC08D81682F8BE992E00E94EF0C8A836E
:10118000CE0105960E94150989838981882331F44F
:101190008D81882319F08A81823059F78E819F8151
:1011A0002BE932E0FC013183208388859985892BE6
:1011B00091F18BE992E00E94C40D9C01888599858C
:1011C000FC013183208327C080919302813019F57F
:1011D0008BE992E00E94C40D9C838B838B819C8160
:1011E000892B19F48EE0898316C08E819F812BE9AB
:1011F00032E0FC013183208388859985892B51F069
:101200008BE992E00E94C40D9C0188859985FC01C0
:10121000318320831982898129960FB6F894DEBF25
:101220000FBECDBFDF91CF910895CF93DF9300D054
:10123000CDB7DEB79A83898300008BE290E0FC0192
:1012400080818823D4F789819A81892B51F08CE29F
:1012500090E0FC01208189819A81FC01208380E05B
:1012600001C08AE00F900F90DF91CF910895CF9346
:10127000DF93CDB7DEB727970FB6F894DEBF0FBE6A
:10128000CDBF9C838B836D835F834E838D81823042
:1012900010F081E044C08D81882319F480E190E052
:1012A00002C088E090E09A8389838B819C81803C96
:1012B00022E1920779F0813CE2E19E0720F480363A
:1012C000994041F02BC0803825E2920719F0803414
:1012D000984321F589819A819C0140E050E08B81FF
:1012E0009C81CC01A0E0B0E0BC01CD010E94D70DF3
:1012F0009B01AC0180E092E1AAE7B0E0BC01CD0126
:101300000E94E70DDA01C9019C01215031098E814B
:101310009F81FC013183208380E001C086E0279615
:101320000FB6F894DEBF0FBECDBFDF91CF91089509
:10133000CF93DF931F92CDB7DEB7809193028130B8
:1013400009F09BC080919402813009F04FC08091D8
:101350009602882F90E08230910579F083309105D4
:101360000CF482C08430910509F480C0843091056A
:101370000CF47EC0059781F180C080919902909114
:101380009A02892BE9F081E080939602198280917C
:101390009702909198029E012F5F3F4FB9010E94E2
:1013A000530D8CE290E02981FC0120838091990209
:1013B00090919A02019790939A02809399025DC04E
:1013C00083E0809396028CE290E0FC011082109200
:1013D00098021092970251C01092940210929602B5
:1013E00060E070E080E00E945B0A47C08091940258
:1013F000823049F580919602853039F41092960238
:1014000060E070E080E00E945B0A80919502882F86
:1014100090E08130910571F1823091056CF182305C
:10142000910519F0039759F028C060E070E082E060
:101430000E945B0A10929402109295021EC01092B4
:10144000940200001AC0809194028823B1F4809124
:101450009502833091F48BE992E00E94D60C8823A8
:1014600061F41092950209C0000007C0000005C099
:10147000000003C0000001C0000080E00F90DF9179
:10148000CF910895CF93DF9300D0CDB7DEB79A8385
:10149000898389819A81892B41F089819A819093EE
:1014A00096048093950480E001C088E00F900F902F
:1014B000DF91CF910895CF93DF9300D000D000D07B
:1014C000CDB7DEB78C837E836D838C8189838D81DC
:1014D0009E819B838A838091950490919604892BA9
:1014E00071F0209195043091960470919704898150
:1014F0009A81AB81AC016A2F872FF9010995000011
:1015000026960FB6F894DEBF0FBECDBFDF91CF9108
:1015100008951F920F9200905F000F9211242F9355
:101520003F934F935F936F937F938F939F93AF936B
:10153000BF93EF93FF93CF93DF9300D01F92CDB76C
:10154000DEB78CE290E0FC01808189838091950276
:10155000882F90E08130910529F1823091051CF4AB
:10156000892B19F038C0029799F569818BE992E0CF
:101570000E94EF0C8A838A81823031F410929402A7
:1015800083E08093950227C082E080939402898152
:10159000882321F081E0809395021DC082E0809332
:1015A000950219C08981882321F482E080939502F5
:1015B00011C069818BE992E00E94EF0C8B838B81D3
:1015C000823041F41092940283E08093950202C02D
:1015D000000001C0000000000F900F900F90DF91FD
:1015E000CF91FF91EF91BF91AF919F918F917F919B
:1015F0006F915F914F913F912F910F9000925F00FB
:101600000F901F9018951F920F9200905F000F92FD
:1016100011248F939F93EF93FF93CF93DF93CDB7D5
:10162000DEB780919602813021F482E080939602A9
:1016300013C080919602833021F485E08093960256
:101640000BC080919602843039F48CE290E0FC016A
:10165000108283E0809396020000DF91CF91FF918A
:10166000EF919F918F910F9000925F000F901F90CC
:101670001895CF93DF9300D01F92CDB7DEB79B8331
:101680008A838A819B81FC018081882F90E0813050
:10169000910561F18230910559F1892B51F58A81CB
:1016A0009B81FC01818192810E94A00589838981AF
:1016B000882F90E0009729F09923B4F00997A4F4BB
:1016C00011C08BE69CE00E94420A898389818823AD
:1016D00011F480E00FC08981883011F483E00AC0E2
:1016E00087E008C081E006C0000003C0000001C020
:1016F000000080E00F900F900F90DF91CF91089540
:10170000CF93DF93CDB7DEB727970FB6F894DEBF40
:101710000FBECDBF9B838A837D836C835F834E83A3
:101720008A819B81FC018081882F90E08130910526
:10173000F1F082309105E9F0892BE1F42E813F81AF
:101740008C819D81B9010E941B0889838981882F22
:1017500090E0009731F0992344F00C97029728F419
:1017600002C080E008C085E006C0000003C00000A1
:1017700001C0000080E027960FB6F894DEBF0FBED0
:10178000CDBFDF91CF910895CF93DF93CDB7DEB773
:1017900027970FB6F894DEBF0FBECDBF9B838A8319
:1017A0007D836C835F834E838A819B81FC01808172
:1017B000882F90E08130910519F18230910511F167
:1017C000892B09F52E813F818C819D81B9010E9471
:1017D0009E0889838981882F90E08E30910534F4AA
:1017E0008C30910544F4892B21F009C00E9729F023
:1017F00006C080E009C085E007C086E005C003C0E0
:10180000000001C0000080E027960FB6F894DEBF0C
:101810000FBECDBFDF91CF910895CF93DF9300D05E
:10182000CDB7DEB79A83898389819A81FC01808153
:10183000882F90E08130910541F08230910539F098
:10184000892B31F40E94980903C0000001C00000F8
:1018500080E00F900F90DF91CF910895CF93DF93A9
:1018600000D0CDB7DEB79A83898389819A81892B8D
:1018700041F089819A81909399048093980480E043
:1018800001C083E00F900F90DF91CF910895CF9327
:10189000DF9300D000D0CDB7DEB789834A835B8366
:1018A0006C838091980490919904892B61F0209128
:1018B0009804309199048A819B81AC81AC016A2F94
:1018C0008981F901099500000F900F900F900F90FA
:1018D000DF91CF910895CF93DF9300D000D0CDB7A3
:1018E000DEB789834A835B836C838981882F90E08C
:1018F00081309105A1F08230910599F0892B09F092
:1019000011C08A81882F90E0039748F48A819B81D7
:10191000AC81AC016A2F89810E94470C0000000055
:1019200001C0000000000F900F900F900F90DF910A
:10193000CF910895CF93DF9300D0CDB7DEB79A83D0
:10194000898389819A818C509E4FFC01118210827B
:1019500089819A818A509E4F2FEF3FEFFC0131839E
:10196000208389819A8188509E4FFC0111821082C8
:1019700000000F900F90DF91CF910895CF93DF93E8
:1019800000D0CDB7DEB79A83898389819A81885048
:101990009E4FFC018081918121E0892B09F020E09C
:1019A000822F0F900F90DF91CF910895CF93DF9307
:1019B00000D0CDB7DEB79A83898389819A81885018
:1019C0009E4FFC0180819181843F914011F482E01F
:1019D00001C080E00F900F90DF91CF910895CF93D9
:1019E000DF9300D01F92CDB7DEB79A8389836B83D4
:1019F00089819A810E94D60C823011F482E04DC018
:101A000089819A818A509E4FFC0180819181AC012D
:101A10004F5F5F4FCA0196958795969587959C0174
:101A2000A5ECB0E20E94090E929582958F708927ED
:101A30009F70892764EF71E0869F9001879F300D2A
:101A4000969F300D1124CA01821B930B29813A8184
:101A50002A503E4FF9019183808389819A818A506F
:101A60009E4FFC018081918129813A81820F931FD1
:101A70002B81FC01208389819A8188509E4FFC0133
:101A8000808191819C012F5F3F4F89819A8188508D
:101A90009E4FFC013183208380E00F900F900F90C8
:101AA000DF91CF910895CF93DF9300D000D000D085
:101AB000CDB7DEB79C838B837E836D838B819C81C6
:101AC0000E94BE0C882311F081E055C08B819C815F
:101AD0008C509E4FFC01808191812B813C81820F33
:101AE000931FFC018081882F90E09A8389838B81EA
:101AF0009C818C509E4FFC0180819181AC014F5F95
:101B00005F4FCA0196958795969587959C01A5ECA0
:101B1000B0E20E94090E929582958F7089279F707E
:101B2000892764EF71E0869F9001879F300D969F13
:101B3000300D1124CA01821B930B2B813C812C5048
:101B40003E4FF901918380838B819C8188509E4F09
:101B5000FC01808191819C01215031098B819C8104
:101B600088509E4FFC013183208329818D819E8185
:101B7000FC01208380E026960FB6F894DEBF0FBEEE
:101B8000CDBFDF91CF910895CF93DF9300D0CDB734
:101B9000DEB79A83898389819A8188509E4FFC01A0
:101BA000808191810F900F90DF91CF910895DB019B
:101BB0008F939F930E94180EBF91AF91A29F800DAB
:101BC000911DA39F900DB29F900D11240895A1E245
:101BD0001A2EAA1BBB1BFD010DC0AA1FBB1FEE1FA7
:101BE000FF1FA217B307E407F50720F0A21BB30BF2
:101BF000E40BF50B661F771F881F991F1A9469F76E
:101C000060957095809590959B01AC01BD01CF01C9
:101C10000895A29FB001B39FC001A39F700D811DC5
:101C20001124911DB29F700D811D1124911D0895E5
:101C30000E94090EA59F900DB49F900DA49F800D4A
:0A1C4000911D11240895F894FFCFC0
:101C4A0042434D204F7065726174696E6700436F3D
:101C5A006E6669726D2042434D204F7065726174E1
:101C6A00696E6700020080250000030001008400FD
:00000001FF
