:100000000C9437000C9454000C9454000C9454003D
:100010000C9454000C9454000C9454000C94540010
:100020000C9454000C9454000C9454000C94540000
:100030000C9454000C947E0A0C9454000C941A0BEB
:100040000C9454000C9454000C9454000C945400E0
:100050000C9454002F0A82092F0A2F0A9409A1092F
:1000600098092F0ABB092F0A2F0A2F0AEB0911241E
:100070001FBECFE5D8E0DEBFCDBF10E0A0E6B0E008
:10008000E4EFFCE102C005900D92AA3AB107D9F75E
:1000900024E0AAEAB0E001C01D92AE3AB207E1F74F
:1000A0000E94BB010C94780E0C940000CF93DF9358
:1000B000CDB7DEB71092AD048AEA90E09093AC041D
:1000C0008093AB0485EA90E00E94510B83E091E0BD
:1000D0000E947D0C8AEA90E00E94E90C61E081E0D8
:1000E0000E94710162E081E00E94710161E081E0A3
:1000F0000E948A0162E081E00E948A010000DF9193
:10010000CF910895CF93DF93CDB7DEB72A970FB67F
:10011000F894DEBF0FBECDBFCE0105969A838983CA
:1001200018861F820E942F0185EA90E00E945C0CD5
:100130008091AD04882F90E08130910551F082309C
:1001400091050CF45EC08230910551F0039781F067
:1001500059C061E081E00E94A3011092AD0452C039
:1001600062E081E00E94A30183E08093AD044AC075
:100170009E01295F3F4F89819A81A901BC0185EACF
:1001800090E00E94130C14C019868D819E819E01FF
:10019000275F3F4FB9010E94A20D8985682F8AEA27
:1001A00090E00E943E0D8F819885019798878F83FC
:1001B0008F819885892B41F78AEA90E00E94130E7F
:1001C0009C838B838B819C81019779F41A86CE0165
:1001D0000A96BC018AEA90E00E94A20D8A85682FE7
:1001E00085EA90E00E94980B09C08B819C81AC014C
:1001F0006BEA74E085EA90E00E94CF0B1092AD04A8
:1002000001C0000091CFCF93DF9300D000D0CDB7D5
:10021000DEB789834A835B836C839091A5008981D3
:100220009817A9F48A81882F90E08130910571F0A8
:100230008230910539F0892B09F009C081E0809363
:10024000AD0405C082E08093AD0401C00000000051
:100250000F900F900F900F90DF91CF910895CF9353
:10026000DF93CDB7DEB7EC970FB6F894DEBF0FBEC5
:10027000CDBF8AE3E1E6F0E0DE01139601900D9236
:100280008A95E1F71A82198213C09E012D5F3F4FB4
:1002900089819A81820F931FFC018081682F8AEAED
:1002A00090E00E943E0D89819A8101969A8389830C
:1002B00089819A81CA974CF38AEA90E00E94130ED2
:1002C000AC016BEA74E085EA90E00E94CF0B00007D
:1002D000EC960FB6F894DEBF0FBECDBFDF91CF9185
:1002E0000895CF93DF9300D01F92CDB7DEB78A83F6
:1002F0006B8341E06B818A810E94C801898381E020
:100300009981992309F480E00F900F900F90DF916D
:10031000CF910895CF93DF9300D01F92CDB7DEB772
:100320008A836B8341E06B818A810E94BC0389834D
:1003300081E09981992309F480E00F900F900F904C
:10034000DF91CF910895CF93DF9300D01F92CDB767
:10035000DEB78A836B836B818A810E94C50489839F
:1003600081E09981992309F480E00F900F900F901C
:10037000DF91CF910895CF93DF93CDB7DEB70E9481
:1003800056000E94820080E090E0DF91CF910895B6
:10039000CF93DF9300D000D0CDB7DEB78A836B83D5
:1003A0004C836B818A810E94F90489838981882327
:1003B00011F08981FCC08A81882F90E081309105FD
:1003C00009F447C0823091051CF4892B49F0ECC038
:1003D0008230910509F476C0039709F4ACC0E4C0FB
:1003E0008C818130C1F42AE330E08AE390E0FC01A3
:1003F00060818B81482F50E081E090E0A0E0B0E088
:1004000004C0880F991FAA1FBB1F4A95D2F7862BDD
:10041000F9018083CBC08C818823C9F42AE330E0C2
:100420008AE390E0FC0160818B81482F50E081E0FD
:1004300090E0A0E0B0E004C0880F991FAA1FBB1F86
:100440004A95D2F780958623F9018083AFC084E076
:10045000AEC08C818130C1F427E330E087E390E0C7
:10046000FC0160818B81482F50E081E090E0A0E0AA
:10047000B0E004C0880F991FAA1FBB1F4A95D2F78E
:10048000862BF901808392C08C818823C9F427E3ED
:1004900030E087E390E0FC0160818B81482F50E0E1
:1004A00081E090E0A0E0B0E004C0880F991FAA1F8F
:1004B000BB1F4A95D2F780958623F901808376C0C9
:1004C00084E075C08C818130C1F424E330E084E3A2
:1004D00090E0FC0160818B81482F50E081E090E04A
:1004E000A0E0B0E004C0880F991FAA1FBB1F4A9567
:1004F000D2F7862BF901808359C08C818823C9F4F7
:1005000024E330E084E390E0FC0160818B81482F9C
:1005100050E081E090E0A0E0B0E004C0880F991FB7
:10052000AA1FBB1F4A95D2F780958623F9018083C5
:100530003DC084E03CC08C818130C1F421E330E0D7
:1005400081E390E0FC0160818B81482F50E081E0E5
:1005500090E0A0E0B0E004C0880F991FAA1FBB1F65
:100560004A95D2F7862BF901808320C08C8188239D
:10057000C9F421E330E081E390E0FC0160818B81EC
:10058000482F50E081E090E0A0E0B0E004C0880F88
:10059000991FAA1FBB1F4A95D2F780958623F901A0
:1005A000808304C084E003C083E001C080E00F903A
:1005B0000F900F900F90DF91CF910895CF93DF931D
:1005C00000D000D01F92CDB7DEB78A836B835D83E6
:1005D0004C836B818A810E94F904898389818823F5
:1005E00011F08981C1C08A81882F90E08130910506
:1005F000C9F1823091051CF4892B49F0B4C08230D6
:10060000910509F45AC0039709F482C0ACC089E38C
:1006100090E0FC018081282F30E040E050E08B81A9
:10062000682F70E081E090E0A0E0B0E004C0880FA7
:10063000991FAA1FBB1F6A95D2F782239323A42375
:10064000B5232B81222F30E004C0B695A79597954E
:1006500087952A95D2F7282F8C819D81FC012083D4
:1006600080E082C086E390E0FC018081282F30E0AA
:1006700040E050E08B81682F70E081E090E0A0E0E6
:10068000B0E004C0880F991FAA1FBB1F6A95D2F75C
:1006900082239323A423B5232B81222F30E004C08F
:1006A000B695A795979587952A95D2F7282F8C818F
:1006B0009D81FC01208380E057C083E390E0FC0132
:1006C0008081282F30E040E050E08B81682F70E07F
:1006D00081E090E0A0E0B0E004C0880F991FAA1F5D
:1006E000BB1F6A95D2F782239323A423B5232B81C2
:1006F000222F30E004C0B695A795979587952A9547
:10070000D2F7282F8C819D81FC01208380E02CC0B2
:1007100080E390E0FC018081282F30E040E050E051
:100720008B81682F70E081E090E0A0E0B0E004C031
:10073000880F991FAA1FBB1F6A95D2F782239323A4
:10074000A423B5232B81222F30E004C0B695A795B2
:10075000979587952A95D2F7282F8C819D81FC014A
:10076000208380E001C083E00F900F900F900F90E6
:100770000F90DF91CF910895CF93DF9300D000D0F9
:10078000CDB7DEB78A836B834C836B818A810E94ED
:10079000F90489838981882311F08981EFC08C81D4
:1007A000823010F084E0EAC08A81882F90E08230A5
:1007B000910509F478C0833091052CF4009759F025
:1007C0000197E9F1DAC08330910509F4A0C00497DC
:1007D00009F4D1C0D2C08C818823C1F02BE330E072
:1007E0008BE390E0FC0160818B81482F50E081E039
:1007F00090E0A0E0B0E004C0880F991FAA1FBB1FC3
:100800004A95D2F7862BF9018083B7C02BE330E0FD
:100810008BE390E0FC0160818B81482F50E081E008
:1008200090E0A0E0B0E004C0880F991FAA1FBB1F92
:100830004A95D2F780958623F90180839EC08C81EA
:100840008823C1F028E330E088E390E0FC01608178
:100850008B81482F50E081E090E0A0E0B0E004C040
:10086000880F991FAA1FBB1F4A95D2F7862BF90143
:10087000808383C028E330E088E390E0FC0160815E
:100880008B81482F50E081E090E0A0E0B0E004C010
:10089000880F991FAA1FBB1F4A95D2F78095862300
:1008A000F90180836AC08C818823C1F025E330E0A0
:1008B00085E390E0FC0160818B81482F50E081E06E
:1008C00090E0A0E0B0E004C0880F991FAA1FBB1FF2
:1008D0004A95D2F7862BF90180834FC025E330E09B
:1008E00085E390E0FC0160818B81482F50E081E03E
:1008F00090E0A0E0B0E004C0880F991FAA1FBB1FC2
:100900004A95D2F780958623F901808336C08C8181
:100910008823C1F022E330E082E390E0FC016081B3
:100920008B81482F50E081E090E0A0E0B0E004C06F
:10093000880F991FAA1FBB1F4A95D2F7862BF90172
:1009400080831BC022E330E082E390E0FC01608101
:100950008B81482F50E081E090E0A0E0B0E004C03F
:10096000880F991FAA1FBB1F4A95D2F7809586232F
:10097000F901808302C083E001C080E00F900F90F6
:100980000F900F90DF91CF910895CF93DF9300D018
:1009900000D0CDB7DEB78B836C836C818B810E94D6
:1009A000F90489838981882311F089811BC01A8207
:1009B000CE010296AC016C818B810E94DE0289839C
:1009C0008981882371F49A8181E0992309F080E07C
:1009D0008A838A81482F6C818B810E94BC0380E0CE
:1009E00001C086E00F900F900F900F90DF91CF9194
:1009F0000895CF93DF9300D0CDB7DEB789836A83A4
:100A00008A81883010F082E006C08981843010F03D
:100A100083E001C080E00F900F90DF91CF910895A7
:100A2000CF93DF9300D000D01F92CDB7DEB79D8368
:100A30008C8319828CEA92E00E94E90C1B821A8254
:100A40008C819D81FC0165818C819D81FC0182816D
:100A500093819E012E5F3F4FA9010E94FB0889836D
:100A60008981882311F08981F4C180E490E02A8192
:100A70003B81232F3327FC01208389E290E02A81E8
:100A80003B81FC0120838C819D81FC018081882F2A
:100A900090E08130910599F18230910509F45BC0B5
:100AA000892B09F0A8C08AE290E02AE230E0F9013F
:100AB00020812860FC0120838AE290E02AE230E075
:100AC000F90120812F7EFC0120838C819D81FC0116
:100AD0008085813051F48AE290E02AE230E0F90129
:100AE00020812064FC01208388C08AE290E02AE211
:100AF00030E0F90120812F7BFC0120837EC08AE257
:100B000090E02AE230E0F90120812061FC0120839D
:100B10008AE290E02AE230E0F9012081277FFC019F
:100B200020838C819D81FC018085813051F48AE293
:100B300090E02AE230E0F90120812068FC01208366
:100B40005CC08AE290E02AE230E0F90120812F7750
:100B5000FC01208352C08AE290E02AE230E0F901F1
:100B600020812860FC0120838AE290E02AE230E0C4
:100B7000F90120812061FC0120838C819D81FC0191
:100B800080858130E1F48AE290E02AE230E0F901E8
:100B900020812064FC0120838AE290E02AE230E098
:100BA000F90120812068FC0120838AE290E02AE29A
:100BB00030E0F90120812F7DFC0120831EC08AE2F4
:100BC00090E02AE230E0F90120812F7BFC012083B4
:100BD0008AE290E02AE230E0F90120812F77FC01DF
:100BE00020838AE290E02AE230E0F90120812F7D23
:100BF000FC01208302C082E02CC18C819D81FC011C
:100C00008581882351F08BE290E02BE230E0F901FE
:100C100020812260FC01208309C08BE290E02BE25E
:100C200030E0F90120812D7FFC01208380E490E0F9
:100C300020E430E0F90120812068FC0120838C81D0
:100C40009D81FC018681882F90E0049708F076C092
:100C50008C819D81FC018681882F90E0A0E0B0E02E
:100C600084709927AA27BB27B695A795979587954E
:100C7000B695A79597958795892B8A2B8B2B51F045
:100C80008AE290E02AE230E0F90120812460FC0150
:100C9000208309C08AE290E02AE230E0F901208155
:100CA0002B7FFC0120838C819D81FC018681882F14
:100CB00090E0A0E0B0E082709927AA27BB27B69504
:100CC000A79597958795892B8A2B8B2B51F080E4DC
:100CD00090E020E430E0F90120812460FC012083D1
:100CE00009C080E490E020E430E0F90120812B7F0E
:100CF000FC0120838C819D81FC018681882F90E0FE
:100D0000A0E0B0E081709927AA27BB27892B8A2B06
:100D10008B2B51F080E490E020E430E0F901208159
:100D20002260FC0120830CC080E490E020E430E0ED
:100D3000F90120812D7FFC01208302C083E089C05E
:100D40008C819D81FC018481882F90E0009739F08F
:100D500099230CF44FC00297029708F04BC08C8186
:100D60009D81FC018481882F90E0A0E0B0E082703A
:100D70009927AA27BB27B695A79597958795892B7D
:100D80008A2B8B2B51F080E490E020E430E0F901D5
:100D900020812062FC01208309C080E490E020E4EF
:100DA00030E0F90120812F7DFC0120838C819D8121
:100DB000FC018481882F90E0A0E0B0E08170992749
:100DC000AA27BB27892B8A2B8B2B51F080E490E03C
:100DD00020E430E0F90120812061FC0120830CC077
:100DE00080E490E020E430E0F90120812F7EFC01D6
:100DF000208302C084E02DC08C819D81FC0187810D
:100E0000882F90E0009719F0019759F014C080E402
:100E100090E020E430E0F9012081277FFC0120836D
:100E20000CC080E490E020E430E0F90120812860EB
:100E3000FC01208302C085E00CC08C819D81FC01F7
:100E400080858093A4028091A402813009F4789473
:100E500080E00F900F900F900F900F90DF91CF9147
:100E60000895CF93DF9300D0CDB7DEB78A83198280
:100E70008091A4028823F9F400008BE290E0FC0149
:100E80008081882F90E0A0E0B0E080729927AA27A7
:100E9000BB27689414F8B695A795979587951694EF
:100EA000D1F7892B8A2B8B2B41F38CE290E02A819E
:100EB000FC01208331C08091A402813059F58091DA
:100EC000A502813019F48CE0898326C08091A502A7
:100ED000823019F48DE089831FC081E08093A502E0
:100EE0008A81853221F48BE08093A70203C08AE0D7
:100EF0008093A7028AE290E02AE230E0F9012081A3
:100F00002064FC0120838CE290E02A81FC01208394
:100F1000198202C087E0898389810F900F90DF9149
:100F2000CF910895CF93DF9300D000D000D0CDB7FC
:100F3000DEB79C838B837E836D8319828D819E8136
:100F4000853F914018F089E089836FC08091A402A9
:100F5000882369F50E94DC0889838981882309F048
:100F600064C08EE50E94310717C08B819C81892B5C
:100F7000C1F01A828091A8029091A9029E012E5F71
:100F80003F4FB9010E94A20D8A810E9431078D81D5
:100F90009E8101979E838D838D819E81892B29F768
:100FA00001C0000084E20E94310719823EC0809196
:100FB000A4028130C1F58091A502813019F48CE042
:100FC000898333C08091A502823019F48DE0898332
:100FD0002CC08091A502882319F58091A8029091D8
:100FE000A902892B49F48B819C81FC01808191812C
:100FF0009093A9028093A8022091AA023091AB029B
:101000008D819E81820F931F9093AB028093AA02E1
:1010100081E08093A50281E08093A702198205C038
:101020008FE0898302C087E08983898126960FB685
:10103000F894DEBF0FBECDBFDF91CF910895CF935F
:10104000DF93CDB7DEB729970FB6F894DEBF0FBE9A
:10105000CDBF9F838E837987688719828091A40290
:10106000882309F056C01A821D82CE0105960E947F
:10107000BA0889838D81863299F585E20E9431070D
:10108000CE0105960E94BA0889830CC08D81682F15
:101090008CEA92E00E943E0D8A83CE0105960E9462
:1010A000BA0889838981882331F48D81843219F0CB
:1010B0008A81823059F78E819F812CEA32E0FC01CF
:1010C0003183208388859985892B51F08CEA92E0C1
:1010D0000E94130E9C0188859985FC013183208331
:1010E0008D81682F8CEA92E00E943E0D8E819F8157
:1010F0002CEA32E0FC013183208388859985892B95
:1011000079F18885998521E030E0FC0131832083E5
:1011100027C08091A402813019F58CEA92E00E94E8
:10112000130E9C838B838B819C81892B19F48EE019
:10113000898316C08E819F812CEA32E0FC013183C5
:10114000208388859985892B51F08CEA92E00E9452
:10115000130E9C0188859985FC01318320831982B7
:10116000898129960FB6F894DEBF0FBECDBFDF91FF
:10117000CF910895CF93DF9300D0CDB7DEB79A8398
:10118000898300008BE290E0FC0180818823D4F702
:1011900089819A81892B51F08CE290E0FC012081B9
:1011A00089819A81FC01208380E001C08AE00F9050
:1011B0000F90DF91CF910895CF93DF931F92CDB71A
:1011C000DEB78091A402882F90E0892B79F486E223
:1011D0000E9431071982CE0101960E94BA088981C6
:1011E000853211F480E003C08BE001C087E00F90EE
:1011F000DF91CF910895CF93DF93CDB7DEB72797D7
:101200000FB6F894DEBF0FBECDBF9C838B836D837A
:101210005F834E838D81823010F081E044C08D81E8
:10122000882319F480E190E002C088E090E09A837E
:1012300089838B819C81803C22E1920779F0813CFB
:10124000E2E19E0720F48036994041F02BC08038BF
:1012500025E2920719F08034984321F589819A811B
:101260009C0140E050E08B819C81CC01A0E0B0E08B
:10127000BC01CD010E94260E9B01AC0180E092E1F1
:10128000AAE7B0E0BC01CD010E94360EDA01C90127
:101290009C01215031098E819F81FC013183208383
:1012A00080E001C086E027960FB6F894DEBF0FBE3F
:1012B000CDBFDF91CF910895CF93DF931F92CDB72C
:1012C000DEB78091A402813009F0CCC08091A502E4
:1012D000813009F08AC08091A702882F90E0092E02
:1012E000000CAA0BBB0B40E050E02CE030E0841B6C
:1012F000950B2817390708F4B5C0865D9F4FFC0190
:101300000C94580E82E08093A7028AE290E02AE2D1
:1013100030E0F90120812064FC0120838CE290E020
:1013200026E2FC0120839EC086E08093A7029AC03B
:1013300087E08093A7028CE290E02EE5FC012083F9
:1013400091C080916000882349F0809160008150B5
:101350008093600081E08093A70284C01092A7026E
:101360001092A50283E08093600060E070E081E06D
:101370000E94500A77C08091AA029091AB02892BFB
:10138000E9F087E08093A70219828091A8029091EA
:10139000A9029E012F5F3F4FB9010E94A20D8CE26E
:1013A00090E02981FC0120838091AA029091AB02F8
:1013B00001979093AB028093AA0254C089E0809376
:1013C000A7028CE290E024E2FC0120831092A902A3
:1013D0001092A80247C01092A5021092A70260E0E6
:1013E00070E080E00E94500A3DC08091A5028230EA
:1013F00029F58091A7028C3039F41092A70260E0A1
:1014000070E080E00E94500A8091A602882F90E050
:101410008230910531F0833091051CF1039759F02A
:1014200021C060E070E082E00E94500A1092A502A4
:101430001092A60217C01092A50214C08091A502B6
:10144000882381F48091A602833061F48CEA92E0D3
:101450000E94250D882331F41092A60203C00000DB
:1014600001C0000080E00F90DF91CF910895CF93ED
:10147000DF9300D0CDB7DEB79A83898389819A81C3
:10148000892B41F089819A819093A7048093A604C7
:1014900080E001C088E00F900F90DF91CF91089518
:1014A000CF93DF9300D000D000D0CDB7DEB78C83D0
:1014B0007E836D838C8189838D819E819B838A83CA
:1014C0008091A6049091A704892B71F02091A60425
:1014D0003091A7047091A80489819A81AB81AC01F5
:1014E0006A2F872FF9010995000026960FB6F89408
:1014F000DEBF0FBECDBFDF91CF9108951F920F9237
:1015000000905F000F9211242F933F934F935F93AE
:101510006F937F938F939F93AF93BF93EF93FF93BB
:10152000CF93DF9300D01F92CDB7DEB78CE290E06F
:10153000FC01808189838091A602882F90E082300F
:10154000910581F0833091052CF4009759F00197B3
:1015500081F158C08330910509F451C0049709F412
:1015600041C050C08981863221F485E20E94310752
:1015700049C089818E3539F482E08093A50281E0EB
:101580008093A6023FC069818CEA92E00E943E0DE2
:101590008A838A81823031F41092A50283E080939D
:1015A000A60230C082E08093A50282E08093A6026A
:1015B00029C089818E3529F18981843221F482E024
:1015C0008093A6021EC069818CEA92E00E943E0DC3
:1015D0008B838B818230A9F41092A50283E08093E3
:1015E000A6020FC08981853221F484E08093A7028E
:1015F00003C085E08093A7021092A60203C00000FA
:1016000001C0000000000F900F900F90DF91CF916C
:10161000FF91EF91BF91AF919F918F917F916F91CA
:101620005F914F913F912F910F9000925F000F902B
:101630001F9018951F920F9200905F000F92112437
:101640008F93CF93DF93CDB7DEB78091A70282301F
:1016500039F483E08093A70284E08093A60217C048
:101660008091A702873021F488E08093A7020FC001
:101670008091A702893021F48CE08093A70207C0F3
:101680008091A7028A3019F48CE08093A7020000B1
:10169000DF91CF918F910F9000925F000F901F907C
:1016A0001895CF93DF9300D01F92CDB7DEB79B8301
:1016B0008A838A819B81FC018081882F90E0813020
:1016C000910561F18230910559F1892B51F58A819B
:1016D0009B81FC01818192810E941005898389810F
:1016E000882F90E0009729F09923B4F00997A4F48B
:1016F00011C08AEB9CE00E94370A89838981882384
:1017000011F480E00FC08981883011F483E00AC0B1
:1017100087E008C081E006C0000003C0000001C0EF
:10172000000080E00F900F900F90DF91CF9108950F
:10173000CF93DF9300D000D0CDB7DEB79B838A83F1
:101740006C838A819B81FC018081882F90E08130AD
:101750009105D1F082309105C9F0892BC1F48C81BB
:101760000E94310789838981882F90E0009731F0AA
:10177000992344F00C97029728F402C080E008C037
:1017800085E006C0000003C0000001C0000080E04A
:101790000F900F900F900F90DF91CF910895CF93FE
:1017A000DF93CDB7DEB727970FB6F894DEBF0FBE35
:1017B000CDBF9B838A837D836C835F834E838A81C5
:1017C0009B81FC018081882F90E081309105F1F0B0
:1017D00082309105E9F0892BE1F42E813F818C81E3
:1017E0009D81B9010E94920789838981882F90E0A9
:1017F000009731F0992344F00C97029728F402C027
:1018000080E008C085E006C0000003C0000001C001
:10181000000080E027960FB6F894DEBF0FBECDBF64
:10182000DF91CF910895CF93DF93CDB7DEB72797A0
:101830000FB6F894DEBF0FBECDBF9B838A837D8336
:101840006C835F834E838A819B81FC018081882F1A
:1018500090E08130910519F18230910511F1892BC9
:1018600009F52E813F818C819D81B9010E941F085D
:1018700089838981882F90E08E30910534F48C30F3
:10188000910544F4892B21F009C00E9729F006C078
:1018900080E009C085E007C086E005C003C0000005
:1018A00001C0000080E027960FB6F894DEBF0FBE9F
:1018B000CDBFDF91CF910895CF93DF9300D0CDB707
:1018C000DEB79A83898389819A81FC018081882F80
:1018D00090E08130910541F08230910539F0892BFB
:1018E00031F40E945C0903C0000001C0000080E0E8
:1018F0000F900F90DF91CF910895CF93DF9300D099
:10190000CDB7DEB79A83898389819A81892B41F08B
:1019100089819A819093AA048093A90480E001C0F0
:1019200083E00F900F90DF91CF910895CF93DF93D5
:1019300000D000D0CDB7DEB789834A835B836C8348
:101940008091A9049091AA04892B61F02091A904A7
:101950003091AA048A819B81AC81AC016A2F898174
:10196000F901099500000F900F900F900F90DF91F3
:10197000CF910895CF93DF9300D000D0CDB7DEB7DD
:1019800089834A835B836C838981882F90E08130CF
:101990009105A1F08230910599F0892B09F011C0D1
:1019A0008A81882F90E0039748F48A819B81AC81DB
:1019B000AC016A2F89810E94960C0000000001C0D2
:1019C000000000000F900F900F900F90DF91CF91CB
:1019D0000895CF93DF9300D0CDB7DEB79A83898384
:1019E00089819A818C509E4FFC01118210828981DD
:1019F0009A818A509E4F2FEF3FEFFC013183208365
:101A000089819A8188509E4FFC01118210820000CA
:101A10000F900F90DF91CF910895CF93DF9300D077
:101A2000CDB7DEB79A83898389819A8188509E4F8A
:101A3000FC018081918121E0892B09F020E0822F37
:101A40000F900F90DF91CF910895CF93DF9300D047
:101A5000CDB7DEB79A83898389819A8188509E4F5A
:101A6000FC0180819181843F914011F482E001C0AA
:101A700080E00F900F90DF91CF910895CF93DF9387
:101A800000D01F92CDB7DEB79A8389836B8389819B
:101A90009A810E94250D823011F482E04DC0898127
:101AA0009A818A509E4FFC0180819181AC014F5FE9
:101AB0005F4FCA0196958795969587959C01A5ECF1
:101AC000B0E20E945E0E929582958F7089279F707A
:101AD000892764EF71E0869F9001879F300D969F64
:101AE000300D1124CA01821B930B29813A812A509F
:101AF0003E4FF9019183808389819A818A509E4F5C
:101B0000FC018081918129813A81820F931F2B8171
:101B1000FC01208389819A8188509E4FFC0180813D
:101B200091819C012F5F3F4F89819A8188509E4F00
:101B3000FC013183208380E00F900F900F90DF91A4
:101B4000CF910895CF93DF9300D000D000D0CDB7D0
:101B5000DEB79C838B837E836D838B819C810E9407
:101B60000D0D882311F081E055C08B819C818C5034
:101B70009E4FFC01808191812B813C81820F931FBC
:101B8000FC018081882F90E09A8389838B819C81DE
:101B90008C509E4FFC0180819181AC014F5F5F4F63
:101BA000CA0196958795969587959C01A5ECB0E21C
:101BB0000E945E0E929582958F7089279F7089276B
:101BC00064EF71E0869F9001879F300D969F300DE6
:101BD0001124CA01821B930B2B813C812C503E4F58
:101BE000F901918380838B819C8188509E4FFC01F9
:101BF000808191819C01215031098B819C81885089
:101C00009E4FFC013183208329818D819E81FC01BF
:101C1000208380E026960FB6F894DEBF0FBECDBFBE
:101C2000DF91CF910895CF93DF9300D0CDB7DEB78A
:101C30009A83898389819A8188509E4FFC01808193
:101C400091810F900F90DF91CF910895DB018F93D9
:101C50009F930E946D0EBF91AF91A29F800D911D29
:101C6000A39F900DB29F900D11240895A1E21A2E0A
:101C7000AA1BBB1BFD010DC0AA1FBB1FEE1FFF1F30
:101C8000A217B307E407F50720F0A21BB30BE40B80
:101C9000F50B661F771F881F991F1A9469F76095C7
:101CA0007095809590959B01AC01BD01CF01089581
:101CB000EE0FFF1F0590F491E02D0994A29FB00153
:101CC000B39FC001A39F700D811D1124911DB29F70
:101CD000700D811D1124911D08950E945E0EA59F17
:101CE000900DB49F900DA49F800D911D1124089517
:041CF000F894FFCF96
:101CF400034C6F72656D20697073756D20646F6C31
:101D04006F722073697420616D65742C20636F6E2B
:101D14007365637465747572206164697069736353
:101D2400696E6720656C69742E0D0D0002008025B4
:0A1D34000000030001009C00000005
:00000001FF
