:100000000C942A000C9447000C9447000C94470071
:100010000C9447000C9447000C9447000C94470044
:100020000C9447000C9447000C9447000C94470034
:100030000C9447000C9456060C9447000C94C3068D
:100040000C9447000C9447000C9447000C94470014
:100050000C94470011241FBECFE5D8E0DEBFCDBF12
:1000600010E0A0E6B0E0EAE7F0E102C005900D92F2
:10007000A037B107D9F724E0A0E7B0E001C01D9296
:10008000A337B207E1F70E94EC000C943B080C94F4
:10009000000090916A0098130CC0442319F042307C
:1000A00029F0089581E080937204089582E080939E
:1000B000720408951092720480E790E090937104A6
:1000C000809370048AE690E00E94FE0689E490E046
:1000D0000E944D0780E790E00E94570760E080E0B3
:1000E0000E94D20061E080E00E94D20060E080E0E7
:1000F0000E94DB0061E080E00E94DB000895CF9366
:10010000DF9300D000D01F92CDB7DEB71C821B82D8
:100110008AE690E00E94450780917204823059F08F
:10012000833089F08130A1F760E080E00E94E40034
:1001300010927204EDCF61E080E00E94E40083E061
:1001400080937204E5CFAE014D5F5F4FBE016F5FDC
:100150007F4F8AE690E00E942F0712C01D82BE01E9
:100160006B5F7F4F89819A810E94B8076D8180E71C
:1001700090E00E947B078B819C8101979C838B83FD
:100180008B819C81892B51F780E790E00E940408C5
:10019000AC0160E774E08AE690E00E941E071092CE
:1001A0007204B6CF41E00E94FD0091E0811101C0D0
:1001B00090E0892F089541E00E94550291E081115D
:1001C00001C090E0892F08950E94060391E08111FB
:1001D00001C090E0892F08950E945A000E947F007C
:1001E00080E090E00895683020F4843020F083E0CF
:1001F000089582E0089580E008951F93CF93DF93E0
:10020000C82FD62F142F0E94F3008111A7C0C13030
:1002100069F138F0C23009F44EC0C33009F470C03F
:1002200094C0113081F42AB381E090E0A0E0B0E006
:1002300004C0880F991FAA1FBB1FDA95D2F7822B23
:100240008ABB80E08BC0111182C02AB381E090E0AC
:10025000A0E0B0E004C0880F991FAA1FBB1FDA9569
:10026000D2F7809582238ABB80E078C0113081F478
:1002700027B381E090E0A0E0B0E004C0880F991FB0
:10028000AA1FBB1FDA95D2F7822B87BB80E066C01E
:1002900011115FC027B381E090E0A0E0B0E004C09E
:1002A000880F991FAA1FBB1FDA95D2F7809582236A
:1002B00087BB80E053C0113081F424B381E090E02B
:1002C000A0E0B0E004C0880F991FAA1FBB1FDA95F9
:1002D000D2F7822B84BB80E041C011113CC024B313
:1002E00081E090E0A0E0B0E004C0880F991FAA1F51
:1002F000BB1FDA95D2F78095822384BB80E02EC0A5
:10030000113081F421B381E090E0A0E0B0E004C0BE
:10031000880F991FAA1FBB1FDA95D2F7822B81BBCA
:1003200080E01CC0111119C021B381E090E0A0E071
:10033000B0E004C0880F991FAA1FBB1FDA95D2F73F
:100340008095822381BB80E009C083E007C084E000
:1003500005C084E003C084E001C084E0DF91CF9158
:100360001F9108950F931F93CF93DF93C82FD62F1C
:100370008A010E94F300811193C0C13051F138F01D
:10038000C23009F448C0C33009F467C088C029B33B
:1003900081E090E0A0E0B0E0AC01BD010D2E04C012
:1003A000440F551F661F771F0A94D2F7822F90E0E3
:1003B000A0E0B0E084239523A623B72304C0B6951C
:1003C000A79597958795DA95D2F7F801808380E015
:1003D00067C026B381E090E0A0E0B0E0AC01BD01D1
:1003E0000D2E04C0440F551F661F771F0A94D2F7C5
:1003F000822F90E0A0E0B0E084239523A623B723CA
:1004000004C0B695A79597958795DA95D2F7F80128
:10041000808380E045C023B381E090E0A0E0B0E0BD
:10042000AC01BD010D2E04C0440F551F661F771F80
:100430000A94D2F7822F90E0A0E0B0E084239523C5
:10044000A623B72304C0B695A79597958795DA9507
:10045000D2F7F801808380E023C020B381E090E0F0
:10046000A0E0B0E0AC01BD010D2E04C0440F551F4B
:10047000661F771F0A94D2F7822F90E0A0E0B0E0C9
:1004800084239523A623B72304C0B695A7959795F3
:100490008795DA95D2F7F801808380E001C083E088
:1004A000DF91CF911F910F9108951F93CF93DF9309
:1004B000C82FD62F142F0E94F3008111A3C0123031
:1004C00008F09DC0C23009F454C028F4CC2359F080
:1004D000C13061F196C0C33009F46EC0C43009F078
:1004E00090C083E08FC0112381F02BB381E090E0B6
:1004F000A0E0B0E004C0880F991FAA1FBB1FDA95C7
:10050000D2F7822B8BBB80E07DC02BB381E090E0E3
:10051000A0E0B0E004C0880F991FAA1FBB1FDA95A6
:10052000D2F7809582238BBB80E06CC0112381F0D1
:1005300028B381E090E0A0E0B0E004C0880F991FEC
:10054000AA1FBB1FDA95D2F7822B88BB80E05AC066
:1005500028B381E090E0A0E0B0E004C0880F991FCC
:10056000AA1FBB1FDA95D2F78095822388BB80E053
:1005700049C0112381F025B381E090E0A0E0B0E014
:1005800004C0880F991FAA1FBB1FDA95D2F7822BD0
:1005900085BB80E037C025B381E090E0A0E0B0E00B
:1005A00004C0880F991FAA1FBB1FDA95D2F7809548
:1005B000822385BB80E026C0112381F022B381E035
:1005C00090E0A0E0B0E004C0880F991FAA1FBB1FF5
:1005D000DA95D2F7822B82BB80E014C022B381E08F
:1005E00090E0A0E0B0E004C0880F991FAA1FBB1FD5
:1005F000DA95D2F78095822382BB80E003C084E045
:1006000001C080E0DF91CF911F9108950F931F9358
:10061000CF93DF931F92CDB7DEB7182F062F0E941E
:10062000F300811116C01982AE014F5F5F4F602F3A
:10063000812F0E94B20181110BC041E0898181119B
:1006400040E04983602F812F0E94550280E001C065
:1006500086E00F90DF91CF911F910F9108955F9BDE
:10066000FECF009729F02CB1FC01208380E0089593
:100670008AE00895CF93DF93EA01623050F561116B
:1006800003C020E130E002C028E030E0803C42E1DD
:10069000940771F028F4803649E09407E1F408C02B
:1006A000803845E2940721F0803448E3940799F4B8
:1006B000DC010E942C089B01AC0160E072E18AE73A
:1006C00090E00E940A08215031093983288380E094
:1006D00003C081E001C086E0DF91CF910895E091F1
:1006E0006A02F0916B02309729F0562F482F672F3E
:1006F00080E0099508950F931F93CF93DF9300D067
:10070000CDB7DEB78C018CE692E00E9457071A82C3
:100710001982F8016581AE014F5F5F4F828193813D
:100720000E943A038111BBC08A8180BD898189B949
:10073000F80180818130B1F018F0823029F1A6C033
:100740008AB188608AB98AB18F7E8AB9F8018085BA
:10075000813021F48AB180648AB933C08AB18F7B39
:100760008AB92FC08AB180618AB98AB1877F8AB974
:10077000F8018085813021F48AB180688AB921C06E
:100780008AB18F778AB91DC08AB188608AB98AB167
:1007900080618AB9F8018085813051F48AB1806422
:1007A0008AB98AB180688AB98AB18F7D8AB909C04D
:1007B0008AB18F7B8AB98AB18F778AB98AB18F7DE6
:1007C0008AB9F8018581882321F08BB182608BB9C9
:1007D00003C08BB18D7F8BB980B5806880BDF80177
:1007E0008681843008F054C082FF04C08AB18460DE
:1007F0008AB903C08AB18B7F8AB9F801868181FFEB
:1008000004C080B5846080BD03C080B58B7F80BD8F
:10081000F801868180FF04C080B5826080BD03C07E
:1008200080B58D7F80BDF8018481882321F09EEF03
:10083000980F923078F581FF04C080B5806280BD4A
:1008400003C080B58F7D80BDF801848180FF04C026
:1008500080B5806180BD03C080B58F7E80BDF8010A
:100860008781882319F0813029F016C080B5877FF1
:1008700080BD03C080B5886080BDF801808580930D
:100880006D04813059F4789480E009C082E007C09B
:1008900083E005C084E003C085E001C080E00F90E4
:1008A0000F90DF91CF911F910F91089590916D045A
:1008B000911105C05D9BFECF8CB980E00895913009
:1008C000C1F490916A049130B1F09230B1F091E0AE
:1008D00090936A04853221F49BE090936C0403C0EA
:1008E0009AE090936C049AB190649AB98CB980E0C4
:1008F000089587E008958CE008958DE00895CF93E2
:10090000DF931F92CDB7DEB780916D0481110FC0C8
:1009100086E20E9456041982CE0101960E942F039E
:100920008981853211F480E003C08BE001C087E04B
:100930000F90DF91CF910895CF92DF92FF920F93A6
:100940001F93CF93DF931F92CDB7DEB76C018B015E
:10095000653F714008F04EC080916D04811122C046
:100960000E947F04F82E81115DC08EE50E9456041E
:1009700012C0C114D10491F01982BE016F5F7F4F84
:1009800080916804909169040E94B80789810E944F
:100990005604015011090115110559F784E20E940E
:1009A000560440C0813059F580916A04813061F16C
:1009B000823079F1811132C080916804909169048C
:1009C000892B39F4F6018081918190936904809399
:1009D00068048091660490916704080F191F1093B2
:1009E000670400936604EAE6F4E081E08083828392
:1009F000F12C18C00F2EF9E0FF2EF02D13C00F2E92
:100A0000F7E0FF2EF02D0EC00F2EFCE0FF2EF02D94
:100A100009C00F2EFDE0FF2EF02D04C00F2EFFE0C9
:100A2000FF2EF02D8F2D0F90DF91CF911F910F9101
:100A3000FF90DF90CF900895CF92DF92EF92FF92D8
:100A40000F931F93CF93DF931F92CDB7DEB76C0147
:100A50007B0180916D04811144C01982CE01019601
:100A60000E942F03182F8981863241F585E20E946A
:100A70005604CE0101960E942F03182F00E00AC0F1
:100A80008CE692E00E947B07082FCE0101960E941F
:100A90002F03182F111105C06981643211F0023043
:100AA00079F78CE692E0F60191838083E114F104FA
:100AB00029F00E940408F7019183808369818CE604
:100AC00092E00E947B078CE692E0F601918380839E
:100AD000E114F10411F181E090E0F701918380834A
:100AE0001CC08130A9F48CE692E00E940408892B96
:100AF00089F08CE692E0F60191838083E114F104A1
:100B000059F00E940408F7019183808310E005C02A
:100B100010E003C01EE001C010E0812F0F90DF91B4
:100B2000CF911F910F91FF90EF90DF90CF9008959C
:100B3000CF93DF931F92CDB7DEB780916D048130E4
:100B400009F0A5C080916A04813009F071C08091DC
:100B50006C04853011F128F4813061F0843099F013
:100B600096C0883091F18C3009F458C0863009F075
:100B70008EC00DC082E080936C048AB180648AB913
:100B800086E28CB984C086E080936C0480C087E0E4
:100B900080936C048EE58CB97AC0809160008823C4
:100BA00039F081508093600081E080936C046FC0C5
:100BB000EAE6F4E01282108283E08093600060E055
:100BC00070E081E00E946F0362C0809166049091A2
:100BD0006704892BC9F087E080936C041982BE01F9
:100BE0006F5F7F4F80916804909169040E94B807FD
:100BF00089818CB9809166049091670401979093E4
:100C000067048093660443C089E080936C0484E2A7
:100C10008CB9109269041092680439C0EAE6F4E0D5
:100C20001082128260E070E080E00E946F032FC0AB
:100C30008230F9F480916C048C3039F410926C0499
:100C400060E070E080E00E946F0380916B0482306E
:100C500019F0833059F01BC060E070E082E00E9420
:100C60006F03EAE6F4E01082118211C010926A0468
:100C70000EC081110CC080916B04833041F48CE66E
:100C800092E00E946F07811102C010926B0480E015
:100C90000F90DF91CF910895009731F090936B0200
:100CA00080936A0280E0089588E008951F920F9271
:100CB0000FB60F9211242F933F934F935F936F932F
:100CC0007F938F939F93AF93BF93EF93FF936CB1F9
:100CD00080916B04813039F128F0823019F0843032
:100CE000B1F140C0663221F485E20E9456043AC058
:100CF0006E3539F4EAE6F4E082E0808381E08183B6
:100D000031C08CE692E00E947B07823031F4EAE643
:100D1000F4E0108283E0818325C0EAE6F4E082E01B
:100D2000808381831FC06E35E9F0643221F482E054
:100D300080936B0417C08CE692E00E947B078230A0
:100D400089F4EAE6F4E0108283E081830BC0653227
:100D500021F484E080936C0403C085E080936C04EC
:100D600010926B04FF91EF91BF91AF919F918F9182
:100D70007F916F915F914F913F912F910F900FBE97
:100D80000F901F9018951F920F920FB60F9211247B
:100D90008F93EF93FF9380916C04823039F4EAE6ED
:100DA000F4E083E0828384E0818311C0873021F402
:100DB00088E080936C040BC0893021F48CE0809330
:100DC0006C0405C08A3019F48CE080936C04FF91A8
:100DD000EF918F910F900FBE0F901F901895E0919B
:100DE0006E04F0916F04309709F009950895811110
:100DF00004C0433010F40E94EF060895FC012081E6
:100E0000211114C0818192810E947B03882321F0EB
:100E1000893070F481E0089587EF96E00E944C06D7
:100E2000882341F0883041F483E0089580E00895FC
:100E300080E0089580E0089587E00895FC018081B6
:100E4000811109C0CB01BA010E949C048C508230F0
:100E500020F080E0089580E0089585E00895FC0189
:100E6000808181110EC0CB01BA010E941C058C301B
:100E700020F08E3040F08E3011F080E0089586E052
:100E8000089580E0089585E00895FC018081811136
:100E900002C00E94980580E00895009731F0909379
:100EA0006F0480936E0480E0089583E00895FC0150
:100EB000EC50FE4F1182108232962FEF3FEF3183BC
:100EC0002083329611821082089588509E4FFC0133
:100ED0002081318181E0232B09F080E00895885042
:100EE0009E4FFC0180819181843F914011F482E00A
:100EF000089580E008951F93CF93DF93EC01162FA0
:100F00000E946F07823081F1FE01EA50FE4F40815E
:100F100051814F5F5F4F9A013695279536952795FA
:100F2000A5ECB0E20E942C08929582958F708927DB
:100F30009F70892764EF71E0869F9001879F300D35
:100F4000969F300D1124CA01821B930B91838083DD
:100F5000FE01E80FF91F1083C850DE4F8881998188
:100F600001969983888380E0DF91CF911F91089546
:100F7000EF92FF920F931F93CF93DF93EC018B01BE
:100F80000E946507E82F811136C07E018CE0E81AC7
:100F90008EEFF80AD7014D915C91DE01A40FB51FC9
:100FA000FC914F5F5F4F9A013695279536952795AF
:100FB000A5ECB0E20E942C08929582958F7089274B
:100FC0009F70892764EF71E0869F9001879F300DA5
:100FD000969F300D1124CA01821B930BD7018D936C
:100FE0009C93C850DE4F88819981019799838883AB
:100FF000D801FC9301C0E1E08E2FDF91CF911F91CA
:101000000F91FF90EF90089588509E4FFC018081D2
:1010100091810895A1E21A2EAA1BBB1BFD010DC0F0
:10102000AA1FBB1FEE1FFF1FA217B307E407F50798
:1010300020F0A21BB30BE40BF50B661F771F881F74
:10104000991F1A9469F760957095809590959B010A
:10105000AC01BD01CF010895A29FB001B39FC001B3
:10106000A39F700D811D1124911DB29F700D811DD4
:0A1070001124911D0895F894FFCF9C
:10107A000302008025000003000100610000000057
:00000001FF
