:100000000C942A000C9447000C9447000C94470071
:100010000C9447000C9447000C9447000C94470044
:100020000C9447000C9447000C9447000C94470034
:100030000C9447000C9465060C9447000C94BD0684
:100040000C9447000C9447000C9447000C94470014
:100050000C94470011241FBECFE5D8E0DEBFCDBF12
:1000600010E0A0E6B0E0E6E5F0E102C005900D92F8
:10007000A238B107D9F724E0A2E8B0E001C01D9290
:10008000AE38B207E1F70E9489010C9429080C945C
:10009000000090917F0098130CC0442319F0423067
:1000A00029F0089581E080938D04089582E0809383
:1000B0008D040895DF92EF92FF920F931F93CF93D9
:1000C000DF931F92CDB7DEB77C018B0120E030E0DB
:1000D0000BC0F901EE0FFF1FEE0FFF1FEE57FF4F92
:1000E00081E083832F5F3F4F80918A00082E000CB0
:1000F000990B281739076CF3D12C34C01982BE0133
:100100006F5F7F4FC8010E94A60720E030E01EC04D
:10011000F901EE0FFF1FEE0FFF1FEE57FF4FA081FB
:10012000B181AD0DB11D9C918381813069F499231A
:1001300059F08981981741F0F901EE0FFF1FEE0F7A
:10014000FF1FEE57FF4F13822F5F3F4F80918A00B2
:10015000082E000C990B28173907D4F2D39481E0AC
:10016000E81AF108E114F10449F680E018C0282FDC
:10017000082E000C330BF901EE0FFF1FEE0FFF1FCF
:10018000EE57FF4F9381913049F4220F331F220F16
:10019000331FF901EE57FF4F828106C08F5F9091A8
:1001A0008A00891724F380E00F90DF91CF911F918F
:1001B0000F91FF90EF90DF9008950F931F93CF93CF
:1001C000DF938C01EB0105C08BE890E00E9469078A
:1001D000219668816111F8CF8BE890E00E94F207C8
:1001E000AC016BE874E0C8010E940C07DF91CF916D
:1001F0001F910F91089510928D048BE890E09093D9
:100200008C0480938B048FE790E00E94EC0689E4D5
:1002100090E00E943B078BE890E00E944507E2E8EF
:10022000F0E082E0808728E630E03183208391E0AF
:100230009283138220E630E03583248386831782FD
:1002400060E080E00E946F0161E080E00E946F0149
:1002500060E080E00E94780161E080E00E94780127
:100260000895CF93DF9300D000D0CDB7DEB71C82C6
:100270001B828FE790E00E94330780918D048230CB
:1002800059F0833089F08130A1F760E080E00E946E
:10029000810110928D04EDCF61E080E00E94810128
:1002A00083E080938D04E5CFAE014D5F5F4FBE01CB
:1002B0006F5F7F4F8FE790E00E941D0769817A8111
:1002C0008B819C810E945A00813031F460E670E09D
:1002D0008FE790E00E94DD0010928D04CACF41E0CC
:1002E0000E949A0191E0811101C090E0892F089548
:1002F00040E00E94F20291E0811101C090E0892F5C
:1003000008950E94A30391E0811101C090E0892F1C
:1003100008950E94FB000E94310180E090E0089562
:10032000683020F4843020F083E0089582E008955E
:1003300080E008951F93CF93DF93C82FD62F142FFB
:100340000E9490018111A7C0C13069F138F0C2301C
:1003500009F44EC0C33009F470C094C0113081F468
:100360002AB381E090E0A0E0B0E004C0880F991FBC
:10037000AA1FBB1FDA95D2F7822B8ABB80E08BC005
:10038000111182C02AB381E090E0A0E0B0E004C087
:10039000880F991FAA1FBB1FDA95D2F78095822379
:1003A0008ABB80E078C0113081F427B381E090E00F
:1003B000A0E0B0E004C0880F991FAA1FBB1FDA9508
:1003C000D2F7822B87BB80E066C011115FC027B3D4
:1003D00081E090E0A0E0B0E004C0880F991FAA1F60
:1003E000BB1FDA95D2F78095822387BB80E053C08C
:1003F000113081F424B381E090E0A0E0B0E004C0CB
:10040000880F991FAA1FBB1FDA95D2F7822B84BBD6
:1004100080E041C011113CC024B381E090E0A0E035
:10042000B0E004C0880F991FAA1FBB1FDA95D2F74E
:100430008095822384BB80E02EC0113081F421B3EB
:1004400081E090E0A0E0B0E004C0880F991FAA1FEF
:10045000BB1FDA95D2F7822B81BB80E01CC0111143
:1004600019C021B381E090E0A0E0B0E004C0880FA3
:10047000991FAA1FBB1FDA95D2F78095822381BBF3
:1004800080E009C083E007C084E005C084E003C0C9
:1004900084E001C084E0DF91CF911F9108950F9314
:1004A0001F93CF93DF93C82FD62F8A010E9490010C
:1004B000811193C0C13051F138F0C23009F448C005
:1004C000C33009F467C088C029B381E090E0A0E0A0
:1004D000B0E0AC01BD010D2E04C0440F551F661FD6
:1004E000771F0A94D2F7822F90E0A0E0B0E0842337
:1004F0009523A623B72304C0B695A795979587950E
:10050000DA95D2F7F801808380E067C026B381E0F6
:1005100090E0A0E0B0E0AC01BD010D2E04C0440F9E
:10052000551F661F771F0A94D2F7822F90E0A0E034
:10053000B0E084239523A623B72304C0B695A795DE
:1005400097958795DA95D2F7F801808380E045C0CA
:1005500023B381E090E0A0E0B0E0AC01BD010D2E3E
:1005600004C0440F551F661F771F0A94D2F7822FCD
:1005700090E0A0E0B0E084239523A623B72304C035
:10058000B695A79597958795DA95D2F7F801808368
:1005900080E023C020B381E090E0A0E0B0E0AC01B7
:1005A000BD010D2E04C0440F551F661F771F0A940E
:1005B000D2F7822F90E0A0E0B0E084239523A62319
:1005C000B72304C0B695A79597958795DA95D2F786
:1005D000F801808380E001C083E0DF91CF911F911B
:1005E0000F9108951F93CF93DF93C82FD62F142F09
:1005F0000E9490018111A3C0123008F09DC0C2304A
:1006000009F454C028F4CC2359F0C13061F196C0EC
:10061000C33009F46EC0C43009F090C083E08FC0CD
:10062000112381F02BB381E090E0A0E0B0E004C0A2
:10063000880F991FAA1FBB1FDA95D2F7822B8BBB9D
:1006400080E07DC02BB381E090E0A0E0B0E004C08A
:10065000880F991FAA1FBB1FDA95D2F780958223B6
:100660008BBB80E06CC0112381F028B381E090E067
:10067000A0E0B0E004C0880F991FAA1FBB1FDA9545
:10068000D2F7822B88BB80E05AC028B381E090E08B
:10069000A0E0B0E004C0880F991FAA1FBB1FDA9525
:1006A000D2F78095822388BB80E049C0112381F076
:1006B00025B381E090E0A0E0B0E004C0880F991F6E
:1006C000AA1FBB1FDA95D2F7822B85BB80E037C00B
:1006D00025B381E090E0A0E0B0E004C0880F991F4E
:1006E000AA1FBB1FDA95D2F78095822385BB80E0D5
:1006F00026C0112381F022B381E090E0A0E0B0E0B9
:1007000004C0880F991FAA1FBB1FDA95D2F7822B4E
:1007100082BB80E014C022B381E090E0A0E0B0E0B2
:1007200004C0880F991FAA1FBB1FDA95D2F78095C6
:10073000822382BB80E003C084E001C080E0DF91BF
:10074000CF911F9108950F931F93CF93DF931F9223
:10075000CDB7DEB7182F062F0E949001811116C069
:100760001982AE014F5F5F4F602F812F0E944F02B1
:1007700081110BC041E08981811140E04983602FE4
:10078000812F0E94F20280E001C086E00F90DF918D
:10079000CF911F910F9108955F9BFECF009729F095
:1007A0002CB1FC01208380E008958AE00895CF9366
:1007B000DF93EA01623050F5611103C020E130E0BF
:1007C00002C028E030E0803C42E1940771F028F458
:1007D000803649E09407E1F408C0803845E2940788
:1007E00021F0803448E3940799F4DC010E941A0850
:1007F0009B01AC0160E072E18AE790E00E94F8079B
:10080000215031093983288380E003C081E001C091
:1008100086E0DF91CF910895E0918502F091860204
:10082000309729F0562F482F672F80E009950895BB
:100830000F931F93CF93DF9300D0CDB7DEB78C011A
:1008400087E892E00E9445071A821982F8016581C3
:10085000AE014F5F5F4F828193810E94D703811168
:10086000BBC08A8180BD898189B9F80180818130CE
:10087000B1F018F0823029F1A6C08AB188608AB937
:100880008AB18F7E8AB9F8018085813021F48AB1DE
:1008900080648AB933C08AB18F7B8AB92FC08AB18C
:1008A00080618AB98AB1877F8AB9F80180858130F1
:1008B00021F48AB180688AB921C08AB18F778AB958
:1008C0001DC08AB188608AB98AB180618AB9F8018D
:1008D0008085813051F48AB180648AB98AB1806898
:1008E0008AB98AB18F7D8AB909C08AB18F7B8AB9EA
:1008F0008AB18F778AB98AB18F7D8AB9F8018581EB
:10090000882321F08BB182608BB903C08BB18D7FBE
:100910008BB980B5806880BDF8018681843008F08D
:1009200054C082FF04C08AB184608AB903C08AB10E
:100930008B7F8AB9F801868181FF04C080B584600D
:1009400080BD03C080B58B7F80BDF801868180FFAC
:1009500004C080B5826080BD03C080B58D7F80BD3E
:10096000F8018481882321F09EEF980F923078F56A
:1009700081FF04C080B5806280BD03C080B58F7DDB
:1009800080BDF801848180FF04C080B5806180BD96
:1009900003C080B58F7E80BDF8018781882319F060
:1009A000813029F016C080B5877F80BD03C080B537
:1009B000886080BDF801808580938804813059F477
:1009C000789480E009C082E007C083E005C084E03D
:1009D00003C085E001C080E00F900F90DF91CF91C0
:1009E0001F910F91089590918804911105C05D9B0E
:1009F000FECF8CB980E00895913091F490918504F8
:100A0000913081F0923081F0E5E8F4E091E090835C
:100A100094E092839AB190649AB98CB980E0089579
:100A200087E008958CE008958DE00895EF92FF929D
:100A30000F931F93CF93DF931F92CDB7DEB77C0147
:100A40008B01653F714008F04BC08091880488237A
:100A5000C9F01DC0E114F10481F01982BE016F5F7D
:100A60007F4F80918304909184040E94A60789811E
:100A70000E94F3040150110905C080E00E94F304B4
:100A800080E037C00115110529F780E032C08130C0
:100A900049F580918504813039F1823039F1811135
:100AA00027C08091830490918404892B39F4F70145
:100AB0008081918190938404809383048091810448
:100AC00090918204080F191F1093820400938104EF
:100AD000E5E8F4E081E0808382E0828380E009C081
:100AE00089E007C087E005C08CE003C08DE001C04D
:100AF0008FE00F90DF91CF911F910F91FF90EF90BA
:100B00000895CF92DF92EF92FF920F931F93CF93AE
:100B1000DF931F92CDB7DEB76C017B018091880413
:100B2000811127C01982CE0101960E94CC03182F93
:100B300000E00AC087E892E00E946907082FCE0112
:100B400001960E94CC03182F111105C069816623FC
:100B500011F0023079F787E892E0F6019183808303
:100B6000E114F10411F10E94F207F70191838083EF
:100B70001CC08130A9F487E892E00E94F207892B1B
:100B800089F087E892E0F60191838083E114F10413
:100B900059F00E94F207F7019183808310E005C0AD
:100BA00010E003C01EE001C010E0812F0F90DF9124
:100BB000CF911F910F91FF90EF90DF90CF9008950C
:100BC000CF93DF931F92CDB7DEB780918804813039
:100BD00009F06CC0809185048130C9F5809187044B
:100BE000823019F0853049F161C080918104909183
:100BF0008204892BC9F081E0809387041982BE01A9
:100C00006F5F7F4F80918304909184040E94A607B8
:100C100089818CB98091810490918204019790938D
:100C200082048093810442C083E0809387041CB8CF
:100C3000109284041092830439C0E5E8F4E0108235
:100C4000128260E070E080E00E940C042FC08230CD
:100C5000F9F480918704853039F41092870460E0BC
:100C600070E080E00E940C0480918604823019F0CC
:100C7000833059F01BC060E070E082E00E940C04F9
:100C8000E5E8F4E01082118211C0109285040EC0D4
:100C900081110CC080918604833041F487E892E092
:100CA0000E945D07811102C01092860480E00F90BF
:100CB000DF91CF910895009731F090938602809351
:100CC000850280E0089588E008951F920F920FB684
:100CD0000F9211242F933F934F935F936F937F93C2
:100CE0008F939F93AF93BF93CF93EF93FF93CCB129
:100CF000809186048130E9F010F0823061F56C2F2C
:100D000087E892E00E946907823031F4E5E8F4E078
:100D1000108283E081831FC082E080938504CC230E
:100D200021F081E08093860416C082E080938604DF
:100D300012C0C11104C082E0809386040CC06C2FE5
:100D400087E892E00E946907823029F4E5E8F4E040
:100D5000108283E08183FF91EF91CF91BF91AF919A
:100D60009F918F917F916F915F914F913F912F91C3
:100D70000F900FBE0F901F9018951F920F920FB6F5
:100D80000F9211248F9380918704813021F482E0A7
:100D9000809387040CC0833021F485E0809387041E
:100DA00006C0843021F41CB883E0809387048F91BF
:100DB0000F900FBE0F901F901895E0918904F0914D
:100DC0008A04309709F009950895811104C04330D1
:100DD00010F40E94DD060895FC012081211114C049
:100DE000818192810E941804882321F0893070F457
:100DF00081E0089585EE96E00E945B06882341F02D
:100E0000883041F483E0089580E0089580E00895FB
:100E100080E0089587E00895FC018081811109C078
:100E2000CB01BA010E9416058C50823020F080E080
:100E3000089580E0089585E00895FC018081811186
:100E40000EC0CB01BA010E9481058C3020F08E309B
:100E500040F08E3011F080E0089586E0089580E043
:100E6000089585E00895FC018081811102C00E94EF
:100E7000E00580E00895009731F090938A04809314
:100E8000890480E0089583E00895FC01EC50FE4F52
:100E90001182108232962FEF3FEF318320833296FA
:100EA00011821082089588509E4FFC01208131816B
:100EB00081E0232B09F080E0089588509E4FFC01CB
:100EC00080819181843F914011F482E0089580E017
:100ED00008951F93CF93DF93EC01162F0E945D07B7
:100EE000823081F1FE01EA50FE4F408151814F5F17
:100EF0005F4F9A013695279536952795A5ECB0E278
:100F00000E941A08929582958F7089279F70892771
:100F100064EF71E0869F9001879F300D969F300DA2
:100F20001124CA01821B930B91838083FE01E80F79
:100F3000F91F1083C850DE4F8881998101969983EB
:100F4000888380E0DF91CF911F910895EF92FF9207
:100F50000F931F93CF93DF93EC018B010E945307F4
:100F6000E82F811136C07E018CE0E81A8EEFF80A76
:100F7000D7014D915C91DE01A40FB51FFC914F5F2D
:100F80005F4F9A013695279536952795A5ECB0E2E7
:100F90000E941A08929582958F7089279F708927E1
:100FA00064EF71E0869F9001879F300D969F300D12
:100FB0001124CA01821B930BD7018D939C93C850B7
:100FC000DE4F88819981019799838883D801FC93AA
:100FD00001C0E1E08E2FDF91CF911F910F91FF9023
:100FE000EF90089588509E4FFC0180819181089573
:100FF000A1E21A2EAA1BBB1BFD010DC0AA1FBB1F1D
:10100000EE1FFF1FA217B307E407F50720F0A21B8E
:10101000B30BE40BF50B661F771F881F991F1A94FB
:1010200069F760957095809590959B01AC01BD0125
:10103000CF010895A29FB001B39FC001A39F700D7F
:10104000811D1124911DB29F700D811D1124911DD0
:061050000895F894FFCFA3
:10105600436F6E6669726D2042434D204F70657214
:101066006174696E670002008025000003000100BC
:02107600760002
:00000001FF
