:020000040000FA
:10000000900200200D0300009D0400001703000073
:10001000190300001B0300001D0300000000000086
:100020000000000000000000000000001F030000AE
:10003000210300000000000023030000250300004E
:1000400027030000290300002B0300002D030000FC
:100050002F030000310300003303000035030000CC
:1000600037030000390300003B0300003D0300009C
:100070003F0300004103000043030000450300006C
:100080004703000049030000AD0500004D030000D8
:100090004F0300005103000053030000550300000C
:1000A00057030000590300005B0300005D030000DC
:1000B0005F030000610300006303000065030000AC
:1000C00067030000690300006B0300006D0300007C
:1000D0006F0300007103000073030000750300004C
:1000E0007703000079030000000000007B0300009C
:1000F0007D0300007F0300008103000083030000F4
:100100008503000087030000890300008B030000C3
:1001100000000000000000008D0300008F030000BD
:100120009103000093030000950300009703000073
:10013000990300009B0300009D0300009F03000043
:1001400000000000000000000000000000000000AF
:10015000A1030000A3030000A5030000A703000003
:10016000000000000000000000000000000000008F
:10017000000000000000000000000000000000007F
:10018000000000000000000000000000000000006F
:10019000000000000000000000000000000000005F
:1001A000000000000000000000000000000000004F
:1001B000A9030000AB030000AD030000AF03000083
:1001C000B1030000B3030000B5030000B703000053
:1001D000B9030000BB030000BD030000BF03000023
:1001E000C1030000C3030000C503000000000000BD
:1001F00000000000C7030000C9030000CB0300009B
:10020000CD030000CF03000000000000000000004C
:10021000D1030000D3030000D5030000D703000082
:10022000D9030000DB030000DD030000DF03000052
:10023000E1030000E3030000E5030000E703000022
:10024000E9030000EB030000ED030000EF030000F2
:10025000F1030000F3030000F5030000F7030000C2
:10026000F9030000FB030000FD03000000F002F8AA
:1002700000F03CF80AA090E8000C82448344AAF104
:100280000107DA4501D100F031F8AFF2090EBAE802
:100290000F0013F0010F18BFFB1A43F001031847BA
:1002A0001C0600003C060000103A24BF78C878C144
:1002B000FAD8520724BF30C830C144BF04680C606C
:1002C000704700000023002400250026103A28BFB4
:1002D00078C1FBD8520728BF30C148BF0B607047B8
:1002E0001FB500F0DDFA1FBD10B510BD00F09BF882
:1002F0001146FFF7F5FF00F081F900F0B9F803B4FB
:10030000FFF7F2FF03BC00F0C1F800003F48804750
:100310003F480047FEE7FEE7FEE7FEE7FEE7FEE7B1
:10032000FEE7FEE7FEE7FEE7FEE7FEE7FEE7FEE7A5
:10033000FEE7FEE7FEE7FEE7FEE7FEE7FEE7FEE795
:10034000FEE7FEE7FEE7FEE7FEE7FEE7FEE7FEE785
:10035000FEE7FEE7FEE7FEE7FEE7FEE7FEE7FEE775
:10036000FEE7FEE7FEE7FEE7FEE7FEE7FEE7FEE765
:10037000FEE7FEE7FEE7FEE7FEE7FEE7FEE7FEE755
:10038000FEE7FEE7FEE7FEE7FEE7FEE7FEE7FEE745
:10039000FEE7FEE7FEE7FEE7FEE7FEE7FEE7FEE735
:1003A000FEE7FEE7FEE7FEE7FEE7FEE7FEE7FEE725
:1003B000FEE7FEE7FEE7FEE7FEE7FEE7FEE7FEE715
:1003C000FEE7FEE7FEE7FEE7FEE7FEE7FEE7FEE705
:1003D000FEE7FEE7FEE7FEE7FEE7FEE7FEE7FEE7F5
:1003E000FEE7FEE7FEE7FEE7FEE7FEE7FEE7FEE7E5
:1003F000FEE7FEE7FEE7FEE7FEE7FEE7FEE70000BA
:1004000004480549034A054B70470000A104000059
:100410006D0200009000002090020020900000205B
:10042000704770477047754600F02CF8AE460500DF
:100430006946534620F00700854618B020B5FFF7FF
:10044000DFFFBDE820404FF000064FF000074FF0FF
:1004500000084FF0000BAC46ACE8C009ACE8C0099E
:10046000ACE8C009ACE8C00921F007018D4670472F
:1004700010B50446AFF300802046BDE81040FFF7FA
:100480003EBF0000004870470800002001491820C6
:10049000ABBEFEE72600020070470000FFE7FEE764
:1004A00081B04EF68851CEF20001086840F4700029
:1004B00008604EF27001C4F20F0142F61000C0F263
:1004C000807008604EF26002C4F20F0243F6D12041
:1004D000C0F28E70106042F64250C0F29E10106062
:1004E00042F60000C0F28010086000200090FFE794
:1004F0000098C0087C2805D8FFE7FFE70098013086
:100500000090F5E74EF26001C4F20F0140F6425050
:10051000C0F29E1008604EF27001C4F20F0140F666
:100520000000C0F28010086000200090FFE70098F3
:10053000C0087C2805D8FFE7FFE70098013000904D
:10054000F5E74EF26001C4F20F0140F64250C0F2EE
:10055000DE100860FFE74EF25000C4F20F000068A2
:1005600000F04000402801D0FFE7F4E74EF26001C0
:10057000C4F20F0140F24250C0F2DE1008604EF2A9
:100580007001C4F20F014FF0C070086000200090AD
:10059000FFE7009842F20F71884205D8FFE7FFE7B6
:1005A000009801300090F4E701B0704780B540F248
:1005B0007000C2F20000006838B1FFE740F270003E
:1005C000C2F2000000688047FFE780BD81B0ADF84F
:1005D0000200BDF9020000280ED4FFE7BDF90210A9
:1005E00001F01F02012090404A094EF20011CEF2A4
:1005F000000141F82200FFE701B0704780B582B0EA
:100600000021019140F28000C2F200004FF47A72A2
:1006100042600122427202720170817240F2D9611D
:10062000C0F20001C16000F059F8FFE7FEE70000EA
:1006300082B08DF807000091009890B3FFE79DF815
:10064000070001282DDCFFE7009840F20001C2F20C
:100650000001096844F6D352C1F26202A1FB0221F3
:100660008909414340F27800C2F200000022C0E94B
:100670000012D0E900109DF8072040F26800C2F295
:10068000000040F822109DF8072050F8220041F2A7
:100690000001C4F20001002A08BF4FF08041086049
:1006A00000E0FFE702B0704781B08DF803009DF8CD
:1006B000030001280DD1FFE7FFE741F20800C4F273
:1006C000000001680020B0EBD17F01D1FFE7F4E723
:1006D000FFE701B070470000FFE7FEE780B584B098
:1006E00003904FF0FF3002900398002800F0D18073
:1006F000FFE74EF20061C4F20F010868039A137815
:1007000001229A4010430860039908784968FFF76E
:100710008FFF03980078012805D1FFE70398007840
:10072000FFF7C2FFFFE70398407AC0B1FFE70398E5
:10073000007841F20801C4F200010028084604BF15
:100740000820C4F20000006840F00200039A12780A
:10075000002A04BF0821C4F200010860FFE70398E3
:100760000078FFF7A1FF0398807A01283AD1FFE7CC
:100770000398007841F20801C4F2000101910028B9
:10078000084604BF0820C4F20000006840F00400DE
:10079000039A1278002A04BF0821C4F200010860FD
:1007A00003980078FFF780FF0199039800780028EC
:1007B000084604BF0820C4F20000006840F00100B1
:1007C000039A1278002A04BF0821C4F200010860CD
:1007D00003980078FFF768FF4FF01200FFF7F6FE6E
:1007E00062B625E00398807A08BBFFE7039800789B
:1007F00041F20801C4F200010028084604BF0820A5
:10080000C4F20000006840F00100039A1278002A48
:1008100004BF0821C4F20001086003980078FFF7C4
:1008200043FF4FF01200FFF7D1FE62B6FFE7FFE78C
:100830000398007AF0B1FFE70398007841F218417D
:10084000C4F200010028084604BF40F21840C4F278
:100850000000006840F48070039A1278002A04BFF8
:1008600040F21841C4F20001086003980078FFF7D5
:100870001BFFFFE70398C06840B1FFE70398C0681B
:1008800040F27001C2F200010860FFE70020029010
:1008900003E06FF001000290FFE7029804B080BD12
:1008A000F1EE100A4FF6FF71C0F2C03120EA0100EC
:1008B00040F04070E1EE100A70470000DC080000D4
:1008C0000000002004000000A8020000E008000072
:1008D0000800002088020000C402000080F0FA0234
:040000050000030DE7
:00000001FF
