:100000000C9432000C9446030C9430030C944F0073
:100010000C944F000C944F000C944F000C944F0024
:100020000C944F000C944F000C944F000C944F0014
:100030000C944F000C944F000C944F000C944F0004
:100040000C944F000C944F000C944F000C944F00F4
:100050000C944F00FA02FD020103050309030D038E
:100060001103150311241FBECFE5D8E0DEBFCDBFBD
:1000700010E0A0E6B0E0E0E6FCE002C005900D92E2
:10008000A236B107D9F720E0A2E6B0E001C01D9288
:10009000A838B207E1F70E949B000C942E060C943E
:1000A0000000982F862F40E0692F0E94850191E083
:1000B000823009F090E0892F0895982F862F41E033
:1000C000692F0E94850191E0823009F090E0892F2C
:1000D0000895462F6FEF0E945A0291E0823009F096
:1000E00090E0892F0895462F60E00E945A0291E027
:1000F000823009F090E0892F0895EF92FF920F93DC
:100100001F93CF93DF93C82F7B018A01D22F622FD9
:100110000E946900C7010E9415016D2F8C2F0E945B
:100120007300C8010E941501DF91CF911F910F91BB
:10013000FF90EF9008950E948B020E94EE0280E0F3
:1001400090E008957894811115C0613080F1643099
:1001500030F06C3F61F585B78C7F85BF06C085B7F1
:100160008C7F85BF85B7682B65BF8BB780648BBFDD
:1001700080E008958130E9F46130E8F0643030F0D7
:100180006C3FC9F485B7837F85BF0CC085B7837F7B
:1001900085BF85B770E0660F771F660F771F682BE6
:1001A000636065BF8BB780688BBF80E0089581E096
:1001B000089581E0089581E00895813088F08830C5
:1001C00038F0883F69F483B7887F83BF80E0089563
:1001D00093B7987F93BF93B7892B83BF80E008952F
:1001E00081E0089582BF0895803469F018F4883062
:1001F00091F409C0883439F0873B69F483B7877B71
:1002000083BF80E0089593B7977B93BF93B7892B03
:1002100083BF80E0089581E0089583B7887F83BF1E
:1002200088B78E7F88BF12BE0895CF92DF92EF927B
:10023000FF92CF93DF93BC0180E090E00E94D50451
:100240006B017C012FE632E143E853E40E942D0468
:100250000E9416040E949F04EB016230710534F184
:1002600061507109072E000C880B990B0E94D7046E
:100270002FE632E143E853E40E94BB059B01AC0149
:10028000C701B6010E94A9032FE632E143E85FE30C
:100290000E942D049B01AC0160E070E080E893E4D3
:1002A0000E94A9030E94A604862F13C0A7019601ED
:1002B0006FE672E183E893E40E94A9032FE632E13E
:1002C00043E85FE30E942D040E9412050E94A604E9
:1002D000862F0E94F200809160000E94DD0020E0E5
:1002E00030E008B600FEFDCF2F5F3F4F88B781603A
:1002F00088BF2C173D07ACF30E940D01DF91CF9111
:10030000FF90EF90DF90CF900895EF92FF920F93C0
:100310001F93883008F0BEC06130A9F138F0623018
:1003200009F45EC0633009F488C0B6C04130A1F45E
:100330002AB341E050E060E070E07A018B0104C034
:10034000EE0CFF1C001F111F8A95D2F7D801C701C0
:10035000822B8ABB81E0A9C04111A0C02AB341E031
:1003600050E060E070E07A018B0104C0EE0CFF1CED
:10037000001F111F8A95D2F7D801C70180958223EB
:100380008ABB81E092C04130A1F427B341E050E044
:1003900060E070E07A018B0104C0EE0CFF1C001FCE
:1003A000111F8A95D2F7D801C701822B87BB81E044
:1003B0007CC0411175C027B341E050E060E070E0BF
:1003C0007A018B0104C0EE0CFF1C001F111F8A95DF
:1003D000D2F7D801C7018095822387BB81E065C031
:1003E0004130A1F424B341E050E060E070E07A01D4
:1003F0008B0104C0EE0CFF1C001F111F8A95D2F761
:10040000D801C701822B84BB81E04FC041114AC093
:1004100024B341E050E060E070E07A018B0104C059
:10042000EE0CFF1C001F111F8A95D2F7D801C701DF
:100430008095822384BB81E038C04130A1F421B390
:1004400041E050E060E070E07A018B0104C0EE0C06
:10045000FF1C001F111F8A95D2F7D801C701822BFC
:1004600081BB81E022C041111FC021B341E050E0B7
:1004700060E070E07A018B0104C0EE0CFF1C001FED
:10048000111F8A95D2F7D801C7018095822381BBBD
:1004900081E00BC082E009C082E007C082E005C0B5
:1004A00082E003C082E001C082E01F910F91FF90C3
:1004B000EF900895411101C04FEF813079F028F09D
:1004C0008230A9F08330E1F024C08BB3942F909553
:1004D00089236423682B6BBB81E0089588B3942F34
:1004E000909589236423682B68BB81E0089585B3C8
:1004F000942F909589236423682B65BB81E0089530
:1005000082B3942F909589236423682B62BB81E08A
:10051000089582E00895E4E6F0E084E690E09183B7
:10052000808384E893E09383828381E090E09583E5
:10053000848388EC90E09783868320E233E03187E0
:10054000208742E050E0538742874CE251E05587D4
:1005500044874CEB52E05787468743E050E0518B8D
:10056000408B44EF51E0538B428B558B448B44E0DE
:1005700050E0578B468B318F208F938F828F85E091
:1005800090E0958F848F86E0A2E8B0E001900D9214
:100590008A95E1F760E082E00E945D0061E082E020
:1005A0000E945D0062E082E00E945D0063E082E004
:1005B0000E945D0063E083E00E94510063E083E0FD
:1005C0000E94510063E080E00E94A20063E081E0AD
:1005D0000E94A20087EB0E94F4000895E09163005E
:1005E0008E2F90E08830910520F5FC01E65DFF4FED
:1005F0000C9428061092620020C081E08093620073
:100600001CC083E08093620018C087E08093620082
:1006100014C08FE08093620010C08EE0809362006F
:100620000CC08CE08093620008C088E08093620078
:1006300004C0109263001092620020916200222395
:1006400051F0E2E8F0E0428153816081718182E003
:100650000E947D00C3CF60E082E00E947300BECFA5
:100660001F920F920FB60F9211248F938091630007
:10067000873020F48F5F8093630002C01092630084
:100680008F910F900FBE0F901F9018951F920F9291
:100690000FB60F9211248F939F93AF93BF93EF9355
:1006A000FF93809161008230B1F018F4813031F015
:1006B00039C08330E9F0843041F134C096E0EAE695
:1006C000F0E0A2E8B0E001900D929A95E1F78F5F1B
:1006D0008093610033C096E0E0E7F0E0A2E8B0E08C
:1006E00001900D929A95E1F78F5F8093610026C08B
:1006F00096E0E6E7F0E0A2E8B0E001900D929A956E
:10070000E1F78F5F8093610019C096E0ECE7F0E0BD
:10071000A2E8B0E001900D929A95E1F78F5F809387
:1007200061000CC086E0E4E6F0E0A2E8B0E00190F1
:100730000D928A95E1F781E080936100FF91EF913E
:10074000BF91AF919F918F910F900FBE0F901F900F
:1007500018955058BB27AA270E94C1030C9469051D
:100760000E945B0538F00E94620520F039F49F3F3B
:1007700019F426F40C9458050EF4E095E7FB0C945C
:100780002905E92F0E947A0558F3BA176207730703
:100790008407950720F079F4A6F50C94B4050EF4BF
:1007A000E0950B2EBA2FA02D0B01B90190010C0181
:1007B000CA01A0011124FF27591B99F0593F50F499
:1007C000503E68F11A16F040A22F232F342F4427F1
:1007D000585FF3CF469537952795A795F0405395E9
:1007E000C9F77EF41F16BA0B620B730B840BBAF0B9
:1007F0009150A1F0FF0FBB1F661F771F881FC2F724
:100800000EC0BA0F621F731F841F48F48795779537
:100810006795B795F7959E3F08F0B0CF9395880FF1
:1008200008F09927EE0F9795879508950E949C05EB
:1008300090F09F3748F4911116F40C94B50560E0E0
:1008400070E080E89FE3089526F01B16611D711D7E
:10085000811D0C942F050C944A050E9441040C94B0
:1008600069050E94620558F00E945B0540F029F47A
:100870005F3F29F00C94290551110C94B5050C9497
:1008800058050E947A0568F39923B1F3552391F333
:10089000951B550BBB27AA2762177307840738F0EF
:1008A0009F5F5F4F220F331F441FAA1FA9F335D04C
:1008B0000E2E3AF0E0E832D091505040E695001C00
:1008C000CAF72BD0FE2F29D0660F771F881FBB1FBA
:1008D000261737074807AB07B0E809F0BB0B802D98
:1008E000BF01FF2793585F4F3AF09E3F510578F0C4
:1008F0000C9429050C94B5055F3FE4F3983ED4F3BE
:10090000869577956795B795F7959F5FC9F7880F97
:10091000911D9695879597F90895E1E0660F771FE9
:10092000881FBB1F621773078407BA0720F0621B7A
:10093000730B840BBA0BEE1F88F7E09508950E94A5
:10094000A6046894B1110C94B50508950E9482051F
:1009500088F09F5798F0B92F9927B751B0F0E1F080
:10096000660F771F881F991F1AF0BA95C9F714C030
:10097000B13091F00E94B405B1E008950C94B40533
:10098000672F782F8827B85F39F0B93FCCF3869569
:1009900077956795B395D9F73EF4909580957095C6
:1009A00061957F4F8F4F9F4F0895E89409C097FB43
:1009B0003EF490958095709561957F4F8F4F9F4F36
:1009C0009923A9F0F92F96E9BB279395F69587957A
:1009D00077956795B795F111F8CFFAF4BB0F11F43D
:1009E00060FF1BC06F5F7F4F8F4F9F4F16C08823E4
:1009F00011F096E911C0772321F09EE8872F762F1A
:100A000005C0662371F096E8862F70E060E02AF05A
:100A10009A95660F771F881FDAF7880F9695879546
:100A200097F908950E949C0590F09F3748F4911122
:100A300016F00C94B50560E070E080E89FEB089537
:100A400026F41B16611D711D811D0C942F050C943D
:100A50004A0597F99F6780E870E060E00895882371
:100A600071F4772321F09850872B762F07C06623E7
:100A700011F499270DC09051862B70E060E02AF0A8
:100A80009A95660F771F881FDAF7880F96958795D6
:100A900097F908959F3F31F0915020F4879577950D
:100AA0006795B795880F911D9695879597F9089545
:100AB0009FEF80EC089500240A9416161706180676
:100AC0000906089500240A94121613061406050652
:100AD0000895092E0394000C11F4882352F0BB0FE3
:100AE00040F4BF2B11F460FF04C06F5F7F4F8F4F46
:100AF0009F4F089557FD9058440F551F59F05F3F81
:100B000071F04795880F97FB991F61F09F3F79F02F
:100B100087950895121613061406551FF2CF4695B1
:100B2000F1DF08C0161617061806991FF1CF869533
:100B300071056105089408950E948205A0F0BEE742
:100B4000B91788F4BB279F3860F41616B11D672FBC
:100B5000782F8827985FF7CF869577956795B11D91
:100B600093959639C8F30895E894BB2766277727AD
:100B7000CB0197F908950E94CE050C9469050E9457
:100B80005B0538F00E94620520F0952311F00C946B
:100B900029050C94580511240C94B5050E947A057A
:100BA00070F3959FC1F3950F50E0551F629FF001C0
:100BB000729FBB27F00DB11D639FAA27F00DB11DD9
:100BC000AA1F649F6627B00DA11D661F829F222762
:100BD000B00DA11D621F739FB00DA11D621F839FE9
:100BE000A00D611D221F749F3327A00D611D231FBF
:100BF000849F600D211D822F762F6A2F11249F570D
:100C000050409AF0F1F088234AF0EE0FFF1FBB1F0F
:100C1000661F771F881F91505040A9F79E3F5105CE
:100C200080F00C9429050C94B5055F3FE4F3983EE1
:100C3000D4F3869577956795B795F795E7959F5F78
:100C4000C1F7FE2B880F911D9695879597F908950A
:100C5000EE0FFF1F0590F491E02D0994F894FFCF5B
:020C600005018C
:00000001FF
