:100000000C9432000C9426030C9410030C944F00B3
:100010000C944F000C944F000C944F000C944F0024
:100020000C944F000C944F000C944F000C944F0014
:100030000C944F000C944F000C944F000C944F0004
:100040000C944F000C944F000C944F000C944F00F4
:100050000C944F00DA02DD02E102E502E902ED0252
:10006000F102F50211241FBECFE5D8E0DEBFCDBFFF
:1000700010E0A0E6B0E0EEE6FCE002C005900D92D4
:10008000A236B107D9F720E0A2E6B0E001C01D9288
:10009000AC37B207E1F70E94A3000C9435060C942C
:1000A000000040E00E94B400811106C087EB0E946E
:1000B000EA01811103C0089581E0089581E0089567
:1000C000843058F4683058F441E00E94B40091E064
:1000D000811101C090E0892F089581E0089581E0A9
:1000E0000895462F6FEF0E94610191E0813009F081
:1000F00090E0892F0895462F60E00E94610191E011
:10010000813009F090E0892F0895EF92FF920F93CC
:100110001F93CF93DF93C82F7B018A01D22F622FC9
:100120000E947100C7010E940A026D2F8C2F0E944D
:100130007B00C8010E940A02DF91CF911F910F91AD
:10014000FF90EF9008950E947A020E94CE0280E014
:1001500090E00895683020F4843020F083E0089522
:1001600082E0089580E008951F93CF93DF93C82F16
:10017000D62F142F0E94AA0081119FC0C13059F1BF
:1001800038F0C23009F44AC0C33009F46AC08CC0E8
:10019000113079F49AB341E050E060E070E004C0BF
:1001A000440F551F661F771FDA95D2F7492B4ABBBC
:1001B00084C011117BC09AB341E050E060E070E070
:1001C00004C0440F551F661F771FDA95D2F740957C
:1001D00049234ABB72C0113079F497B341E050E033
:1001E00060E070E004C0440F551F661F771FDA956A
:1001F000D2F7492B47BB61C011115AC097B341E0F8
:1002000050E060E070E004C0440F551F661F771F88
:10021000DA95D2F74095492347BB4FC0113079F4A6
:1002200094B341E050E060E070E004C0440F551F1B
:10023000661F771FDA95D2F7492B44BB3EC01111D8
:1002400039C094B341E050E060E070E004C0440F76
:10025000551F661F771FDA95D2F74095492344BB97
:100260002CC0113079F491B341E050E060E070E0CF
:1002700004C0440F551F661F771FDA95D2F7492B2C
:1002800041BB1BC0111118C091B341E050E060E0C8
:1002900070E004C0440F551F661F771FDA95D2F730
:1002A0004095492341BB09C083E007C084E005C0F5
:1002B00084E003C084E001C084E0DF91CF911F910E
:1002C0000895411101C04FEF9FEF960F9E3F60F1DF
:1002D000813079F028F08230A9F08330E1F026C037
:1002E0008BB3942F909589236423682B6BBB80E09C
:1002F000089588B3942F909589236423682B68BB55
:1003000080E0089585B3942F909589236423682B0A
:1003100065BB80E0089582B3942F90958923642370
:10032000682B62BB80E0089585E0089581E0089520
:100330007894811115C0613080F1643030F06C3FE9
:1003400061F585B78C7F85BF06C085B78C7F85BF7B
:1003500085B7682B65BF8BB780648BBF80E008953D
:100360008130E9F46130E8F0643030F06C3FC9F47A
:1003700085B7837F85BF0CC085B7837F85BF85B771
:1003800070E0660F771F660F771F682B636065BF8D
:100390008BB780688BBF80E0089581E0089581E08D
:1003A000089581E00895813088F0883038F0883FE2
:1003B00069F483B7887F83BF80E0089593B7987FFF
:1003C00093BF93B7892B83BF80E0089581E00895A0
:1003D00082BF0895803469F018F4883091F409C020
:1003E000883439F0873B69F483B7877B83BF80E02B
:1003F000089593B7977B93BF93B7892B83BF80E012
:10040000089581E0089583B713BE88B78E7F88BFB3
:1004100012BE0895CF92DF92EF92FF92CF93DF93B7
:10042000BC0180E090E00E94DC046B017C012FE6BF
:1004300032E143E853E40E9434040E941D040E9408
:10044000A604EB016230710534F161507109072E89
:10045000000C880B990B0E94DE042FE632E143E882
:1004600053E40E94C2059B01AC01C701B6010E9482
:10047000B0032FE632E143E85FE30E9434049B01BE
:10048000AC0160E070E080E893E40E94B0030E9459
:10049000AD04862F13C0A70196016FE672E183E8D1
:1004A00093E40E94B0032FE632E143E85FE30E9449
:1004B00034040E9419050E94AD04862F0E94E801B1
:1004C000809160000E94D30120E030E008B600FE79
:1004D000FDCF2F5F3F4F88B7816088BF2C173D0746
:1004E000ACF30E940302DF91CF91FF90EF90DF9079
:1004F000CF900895E4E6F0E084E690E09183808375
:1005000084E893E09383828388EC90E095838483EE
:1005100020E233E0378326834CE251E05187408765
:100520004CEB52E05387428744EF51E055874487B4
:1005300057874687318B208B938B828B808191816B
:10054000A281B3818093780090937900A0937A0080
:10055000B0937B0060E082E00E94600061E082E096
:100560000E94600062E082E00E94600063E082E03E
:100570000E94600063E083E00E94510062E083E03B
:100580000E94510062E080E00E94980162E081E0F8
:100590000E94980187EB0E94EA010895E0916300B0
:1005A0008E2F90E08830910520F5FC01E65DFF4F2D
:1005B0000C942F061092620020C081E080936200AC
:1005C0001CC083E08093620018C087E080936200C3
:1005D00014C08FE08093620010C08EE080936200B0
:1005E0000CC08CE08093620008C088E080936200B9
:1005F00004C01092630010926200209162002223D6
:1006000051F0E8E7F0E0428153816081718182E03E
:100610000E948500C3CF60E082E00E947B00BECFD5
:100620001F920F920FB60F9211248F938091630047
:10063000873020F48F5F8093630002C010926300C4
:100640008F910F900FBE0F901F9018951F920F92D1
:100650000FB60F9211244F935F936F937F938F93F5
:100660009F93AF93BF93809161008230E9F018F4BB
:10067000813031F055C0833059F18430E9F150C0F8
:10068000409168005091690060916A0070916B0020
:10069000409378005093790060937A0070937B00C8
:1006A0008F5F809361004FC040916C0050916D004E
:1006B00060916E0070916F004093780050937900C4
:1006C00060937A0070937B008F5F809361003BC0E2
:1006D00040917000509171006091720070917300B0
:1006E000409378005093790060937A0070937B0078
:1006F0008F5F8093610027C0409174005091750016
:100700006091760070917700409378005093790063
:1007100060937A0070937B008F5F8093610013C0B9
:100720008091640090916500A0916600B09167008F
:100730008093780090937900A0937A00B0937B0027
:1007400081E080936100BF91AF919F918F917F91E4
:100750006F915F914F910F900FBE0F901F90189562
:100760005058BB27AA270E94C8030C9470050E940A
:10077000620538F00E94690520F039F49F3F19F4B2
:1007800026F40C945F050EF4E095E7FB0C9430051D
:10079000E92F0E94810558F3BA176207730784078F
:1007A000950720F079F4A6F50C94BB050EF4E095BE
:1007B0000B2EBA2FA02D0B01B90190010C01CA011B
:1007C000A0011124FF27591B99F0593F50F4503EC6
:1007D00068F11A16F040A22F232F342F4427585FB8
:1007E000F3CF469537952795A795F0405395C9F7D0
:1007F0007EF41F16BA0B620B730B840BBAF0915088
:10080000A1F0FF0FBB1F661F771F881FC2F70EC026
:10081000BA0F621F731F841F48F4879577956795F9
:10082000B795F7959E3F08F0B0CF9395880F08F0E5
:100830009927EE0F9795879508950E94A30590F04C
:100840009F3748F4911116F40C94BC0560E070E0F9
:1008500080E89FE3089526F01B16611D711D811D20
:100860000C9436050C9451050E9448040C947005B4
:100870000E94690558F00E94620540F029F45F3F2C
:1008800029F00C94300551110C94BC050C945F05B3
:100890000E94810568F39923B1F3552391F3951BC9
:1008A000550BBB27AA2762177307840738F09F5F91
:1008B0005F4F220F331F441FAA1FA9F335D00E2EFE
:1008C0003AF0E0E832D091505040E695001CCAF76B
:1008D0002BD0FE2F29D0660F771F881FBB1F26172E
:1008E00037074807AB07B0E809F0BB0B802DBF0105
:1008F000FF2793585F4F3AF09E3F510578F00C94D4
:1009000030050C94BC055F3FE4F3983ED4F3869524
:1009100077956795B795F7959F5FC9F7880F911DF4
:100920009695879597F90895E1E0660F771F881FE0
:10093000BB1F621773078407BA0720F0621B730B93
:10094000840BBA0BEE1F88F7E09508950E94AD0462
:100950006894B1110C94BC0508950E94890588F033
:100960009F5798F0B92F9927B751B0F0E1F0660F73
:10097000771F881F991F1AF0BA95C9F714C0B130B4
:1009800091F00E94BB05B1E008950C94BB05672F60
:10099000782F8827B85F39F0B93FCCF386957795E3
:1009A0006795B395D9F73EF49095809570956195CC
:1009B0007F4F8F4F9F4F0895E89409C097FB3EF4F7
:1009C00090958095709561957F4F8F4F9F4F99239C
:1009D000A9F0F92F96E9BB279395F695879577951A
:1009E0006795B795F111F8CFFAF4BB0F11F460FFDA
:1009F0001BC06F5F7F4F8F4F9F4F16C0882311F032
:100A000096E911C0772321F09EE8872F762F05C045
:100A1000662371F096E8862F70E060E02AF09A95E0
:100A2000660F771F881FDAF7880F9695879597F9D5
:100A300008950E94A30590F09F3748F4911116F095
:100A40000C94BC0560E070E080E89FEB089526F40C
:100A50001B16611D711D811D0C9436050C945105EA
:100A600097F99F6780E870E060E00895882371F44B
:100A7000772321F09850872B762F07C0662311F437
:100A800099270DC09051862B70E060E02AF09A956E
:100A9000660F771F881FDAF7880F9695879597F965
:100AA00008959F3F31F0915020F487957795679591
:100AB000B795880F911D9695879597F908959FEFA3
:100AC00080EC089500240A941616170618060906E5
:100AD000089500240A9412161306140605060895B4
:100AE000092E0394000C11F4882352F0BB0F40F43C
:100AF000BF2B11F460FF04C06F5F7F4F8F4F9F4F7C
:100B0000089557FD9058440F551F59F05F3F71F0FD
:100B10004795880F97FB991F61F09F3F79F0879564
:100B20000895121613061406551FF2CF4695F1DFED
:100B300008C0161617061806991FF1CF869571057D
:100B40006105089408950E948905A0F0BEE7B917D1
:100B500088F4BB279F3860F41616B11D672F782FD5
:100B60008827985FF7CF869577956795B11D939500
:100B70009639C8F30895E894BB2766277727CB01F9
:100B800097F908950E94D5050C9470050E9462059E
:100B900038F00E94690520F0952311F00C9430057F
:100BA0000C945F0511240C94BC050E94810570F320
:100BB000959FC1F3950F50E0551F629FF001729F02
:100BC000BB27F00DB11D639FAA27F00DB11DAA1F11
:100BD000649F6627B00DA11D661F829F2227B00D5E
:100BE000A11D621F739FB00DA11D621F839FA00DE9
:100BF000611D221F749F3327A00D611D231F849F39
:100C0000600D211D822F762F6A2F11249F5750408F
:100C10009AF0F1F088234AF0EE0FFF1FBB1F661F0A
:100C2000771F881F91505040A9F79E3F510580F0D3
:100C30000C9430050C94BC055F3FE4F3983ED4F36C
:100C4000869577956795B795F795E7959F5FC1F777
:100C5000FE2B880F911D9695879597F90895EE0FB5
:0E0C6000FF1F0590F491E02D0994F894FFCF4A
:020C6E0005017E
:00000001FF
