:100000000C942A000C943F000C943F000C943F0089
:100010000C943F000C943F000C943F000C943F0064
:100020000C943F000C943F000C943F000C943F0054
:100030000C943F000C943F000C943F000C943F0044
:100040000C943F000C943F000C943F000C943F0034
:100050000C943F0011241FBECFE5D8E0DEBFCDBF1A
:1000600010E0A0E6B0E0E2E4F2E102C005900D92FB
:10007000A236B107D9F70E94BE010C941F090C9457
:100080000000CF93DF93CDB7DEB760E082E00E943F
:100090004C0161E082E00E944C0162E082E00E943B
:1000A0004C0163E082E00E944C0163E083E00E9427
:1000B000D3000000DF91CF910895CF93DF9300D05C
:1000C000CDB7DEB719821A821A821982CE01029642
:1000D000AC0163E083E00E94FF008983898188236B
:1000E00079F48A81813061F480916000873030F446
:1000F000809160008F5F8093600002C0109260006A
:1001000080916000843038F580916000882F90E005
:100110008130910589F0823091051CF4892B39F0EA
:1001200041C08230910569F0039781F03BC060E0E7
:1001300082E00E94720136C061E082E00E9472019A
:1001400031C062E082E00E9472012CC063E082E074
:100150000E94720127C080916000882F90E0853056
:10016000910589F0863091051CF4049739F01AC086
:100170008630910569F0079781F014C060E082E055
:100180000E9498010FC061E082E00E9498010AC0BD
:1001900062E082E00E94980105C063E082E00E9474
:1001A0009801000091CFCF93DF9300D000D01F9231
:1001B000CDB7DEB78C836D8319821A821B8240E033
:1001C0006D818C810E94CB018A838A81882361F4AE
:1001D00087EB0E94E4048B838B81882311F41982BE
:1001E00005C081E0898302C081E0898389810F9005
:1001F0000F900F900F900F90DF91CF910895CF93B4
:10020000DF93CDB7DEB727970FB6F894DEBF0FBEEA
:10021000CDBF8C836D835F834E8319821B82CE0199
:100220000396AC016D818C810E94E5028A838A81EC
:10023000882341F58B81813001F584E690E00E94AE
:100240006805CE010396AC016D818C810E94E502A8
:100250008A838A81882371F48B81813031F48E8185
:100260009F8121E0FC0120830DC08E819F81FC01D4
:10027000108208C081E0898305C08E819F81FC01C6
:1002800010821982898127960FB6F894DEBF0FBEBF
:10029000CDBFDF91CF910895CF93DF9300D000D0F1
:1002A000CDB7DEB78B836C8319828B81843018F4D1
:1002B0008C81883018F081E089830CC041E06C812A
:1002C0008B810E94CB018A8381E09A81992309F472
:1002D00080E0898389810F900F900F900F90DF91BC
:1002E000CF910895CF93DF9300D000D0CDB7DEB784
:1002F0008B836C8319828B81843018F48C818830D5
:1003000018F081E089830CC041E06C818B810E94F0
:10031000C5038A8381E09A81992309F480E0898367
:1003200089810F900F900F900F90DF91CF910895DA
:10033000CF93DF9300D000D0CDB7DEB78B836C8333
:1003400019828B81843018F48C81883018F081E018
:1003500089830CC040E06C818B810E94C5038A8335
:1003600081E09A81992309F480E0898389810F9043
:100370000F900F900F90DF91CF910895CF93DF935F
:10038000CDB7DEB70E9441000E945D0080E090E0A2
:10039000DF91CF910895CF93DF9300D000D0CDB7F8
:1003A000DEB78A836B834C836B818A810E94CD0484
:1003B00089838981882309F000C18A81882F90E090
:1003C0008130910509F448C0823091051CF4892BD5
:1003D00049F0F0C08230910509F478C0039709F420
:1003E000AFC0E8C08C818130C1F42AE330E08AE3F9
:1003F00090E0FC0160818B81482F50E081E090E02B
:10040000A0E0B0E004C0880F991FAA1FBB1F4A9547
:10041000D2F7862BF9018083D0C08C818823C9F460
:100420002AE330E08AE390E0FC0160818B81482F71
:1004300050E081E090E0A0E0B0E004C0880F991F98
:10044000AA1FBB1F4A95D2F780958623F9018083A6
:10045000B4C084E08983B1C08C818130C1F427E3CA
:1004600030E087E390E0FC0160818B81482F50E011
:1004700081E090E0A0E0B0E004C0880F991FAA1FBF
:10048000BB1F4A95D2F7862BF901808396C08C81D9
:100490008823C9F427E330E087E390E0FC01608122
:1004A0008B81482F50E081E090E0A0E0B0E004C0F4
:1004B000880F991FAA1FBB1F4A95D2F780958623E4
:1004C000F90180837AC084E0898377C08C81813090
:1004D000C1F424E330E084E390E0FC0160818B818F
:1004E000482F50E081E090E0A0E0B0E004C0880F29
:1004F000991FAA1FBB1F4A95D2F7862BF90180834B
:100500005CC08C818823C9F424E330E084E390E06C
:10051000FC0160818B81482F50E081E090E0A0E0F9
:10052000B0E004C0880F991FAA1FBB1F4A95D2F7DD
:1005300080958623F901808340C084E089833DC093
:100540008C818130C1F421E330E081E390E0FC0153
:1005500060818B81482F50E081E090E0A0E0B0E026
:1005600004C0880F991FAA1FBB1F4A95D2F7862B7C
:10057000F901808322C08C818823C9F421E330E013
:1005800081E390E0FC0160818B81482F50E081E0A5
:1005900090E0A0E0B0E004C0880F991FAA1FBB1F25
:1005A0004A95D2F780958623F901808306C084E0BE
:1005B000898303C083E08983000089810F900F90B5
:1005C0000F900F90DF91CF910895CF93DF9300D0DC
:1005D00000D01F92CDB7DEB78A836B835D834C83D7
:1005E0006B818A810E94CD0489838981882309F0E7
:1005F000C3C08A81882F90E081309105C9F1823093
:1006000091051CF4892B49F0B4C08230910509F49E
:100610005AC0039709F482C0ACC089E390E0FC01A2
:100620008081282F30E040E050E08B81682F70E01F
:1006300081E090E0A0E0B0E004C0880F991FAA1FFD
:10064000BB1F6A95D2F782239323A423B5232B8162
:10065000222F30E004C0B695A795979587952A95E7
:10066000D2F7282F8C819D81FC012083198284C0C0
:1006700086E390E0FC018081282F30E040E050E0EC
:100680008B81682F70E081E090E0A0E0B0E004C0D2
:10069000880F991FAA1FBB1F6A95D2F78223932345
:1006A000A423B5232B81222F30E004C0B695A79553
:1006B000979587952A95D2F7282F8C819D81FC01EB
:1006C0002083198259C083E390E0FC018081282FA8
:1006D00030E040E050E08B81682F70E081E090E0F6
:1006E000A0E0B0E004C0880F991FAA1FBB1F6A9545
:1006F000D2F782239323A423B5232B81222F30E02A
:1007000004C0B695A795979587952A95D2F7282F77
:100710008C819D81FC01208319822EC080E390E0B2
:10072000FC018081282F30E040E050E08B81682F71
:1007300070E081E090E0A0E0B0E004C0880F991F75
:10074000AA1FBB1F6A95D2F782239323A423B52344
:100750002B81222F30E004C0B695A79597958795F9
:100760002A95D2F7282F8C819D81FC012083198244
:1007700003C083E08983000089810F900F900F9060
:100780000F900F90DF91CF910895CF93DF9300D01A
:1007900000D0CDB7DEB78A836B834C836B818A81AF
:1007A0000E94CD0489838981882309F0EEC08C8161
:1007B000823018F084E08983E8C08A81882F90E035
:1007C0008130910509F442C0823091051CF4892BD7
:1007D00049F0D8C08230910509F46CC0039709F440
:1007E0009DC0D0C08C818823C1F02BE330E08BE327
:1007F00090E0FC0160818B81482F50E081E090E027
:10080000A0E0B0E004C0880F991FAA1FBB1F4A9543
:10081000D2F7862BF9018083B8C02BE330E08BE35D
:1008200090E0FC0160818B81482F50E081E090E0F6
:10083000A0E0B0E004C0880F991FAA1FBB1F4A9513
:10084000D2F780958623F90180839FC08C8188230D
:10085000C1F028E330E088E390E0FC0160818B8107
:10086000482F50E081E090E0A0E0B0E004C0880FA5
:10087000991FAA1FBB1F4A95D2F7862BF9018083C7
:1008800084C028E330E088E390E0FC0160818B8144
:10089000482F50E081E090E0A0E0B0E004C0880F75
:1008A000991FAA1FBB1F4A95D2F780958623F9018D
:1008B00080836BC08C818823C1F025E330E085E321
:1008C00090E0FC0160818B81482F50E081E090E056
:1008D000A0E0B0E004C0880F991FAA1FBB1F4A9573
:1008E000D2F7862BF901808350C025E330E085E301
:1008F00090E0FC0160818B81482F50E081E090E026
:10090000A0E0B0E004C0880F991FAA1FBB1F4A9542
:10091000D2F780958623F901808337C08C818823A4
:10092000C1F022E330E082E390E0FC0160818B8142
:10093000482F50E081E090E0A0E0B0E004C0880FD4
:10094000991FAA1FBB1F4A95D2F7862BF9018083F6
:100950001CC022E330E082E390E0FC0160818B81E7
:10096000482F50E081E090E0A0E0B0E004C0880FA4
:10097000991FAA1FBB1F4A95D2F780958623F901BC
:10098000808303C083E08983000089810F900F90EA
:100990000F900F90DF91CF910895CF93DF9300D008
:1009A000CDB7DEB789836A838A81883010F082E010
:1009B00006C08981843010F083E001C080E00F9090
:1009C0000F90DF91CF910895CF93DF931F92CDB712
:1009D000DEB789838981882F90E080349105B9F052
:1009E000813491051CF4089791F026C08834910554
:1009F00071F0873B910501F583E590E023E530E058
:100A0000F9012081277BFC01208380E016C083E56B
:100A100090E023E530E0F9012081277BFC01208371
:100A200083E590E023E530E0F90130812981232B33
:100A3000FC01208380E001C081E00F90DF91CF9125
:100A40000895CF93DF931F92CDB7DEB78983898155
:100A5000882F90E08130910534F18830910574F051
:100A6000883F910501F583E590E023E530E0F90149
:100A70002081287FFC01208380E016C083E590E080
:100A800023E530E0F9012081287FFC01208383E504
:100A900090E023E530E0F90130812981232BFC012E
:100AA000208380E001C081E00F90DF91CF91089515
:100AB000CF93DF931F92CDB7DEB7898382E590E0B5
:100AC0002981FC01208300000F90DF91CF910895D0
:100AD000CF92DF92EF92FF92CF93DF93CDB7DEB745
:100AE00063970FB6F894DEBF0FBECDBF9B8B8A8B8A
:100AF00080E094E2A4E7B9E48C839D83AE83BF8356
:100B00002C813D814E815F8160E070E080E894E45B
:100B10000E942407DC01CB0120E030E04AE754E4E6
:100B2000BC01CD010E94B208DC01CB018887998706
:100B3000AA87BB8720E030E040E853E468857985E8
:100B40008A859B850E94B208DC01CB018C879D873A
:100B5000AE87BF878A899B89CC01A0E0B0E0BC0149
:100B6000CD010E94CC07DC01CB012C853D854E8553
:100B70005F85BC01CD010E942407DC01CB01BC01D3
:100B8000CD010E940D07DC01CB01BC01CD010E940B
:100B90009607DC01CB01998B888B8889998902970C
:100BA0000CF446C08A899B89CC01A0E0B0E0BC016E
:100BB000CD010E94CC076B017C018889998901973E
:100BC000092E000CAA0BBB0BBC01CD010E94CE0765
:100BD000DC01CB012C853D854E855F85BC01CD01B7
:100BE0000E94B208DC01CB019C01AD01C701B60136
:100BF0000E94A006DC01CB01288539854A855B85EA
:100C0000BC01CD010E942407DC01CB019C01AD0198
:100C100060E070E080E893E40E94A006DC01CB0174
:100C2000BC01CD010E949D07DC01CB0189832CC052
:100C30008A899B89CC01A0E0B0E0BC01CD010E9473
:100C4000CC07DC01CB019C01AD016C857D858E85D7
:100C50009F850E94A006DC01CB01288539854A8545
:100C60005B85BC01CD010E942407DC01CB01BC01E6
:100C7000CD010E940908DC01CB01BC01CD010E941D
:100C80009D07DC01CB01898389810E9458058091F1
:100C900061000E9421051B821A82000088E590E015
:100CA000FC018081882F90E0A0E0B0E0817099275E
:100CB000AA27BB27892B8A2B8B2B81F38A819B81C7
:100CC00001969B838A8388E590E028E530E0F9016E
:100CD00020812160FC0120832A813B8188899989B8
:100CE00028173907D4F20E948306000063960FB6D6
:100CF000F894DEBF0FBECDBFDF91CF91FF90EF9094
:100D0000DF90CF900895CF93DF93CDB7DEB783E523
:100D100090E0FC01808183E590E0FC01108288E591
:100D200090E028E530E0F90120812E7FFC0120834E
:100D300082E590E0FC0110820000DF91CF910895E0
:100D40005058BB27AA270E94B8060C9460080E943E
:100D5000520838F00E94590820F039F49F3F19F4E6
:100D600026F40C944F080EF4E095E7FB0C94200851
:100D7000E92F0E94710858F3BA17620773078407B6
:100D8000950720F079F4A6F50C94AB080EF4E095E5
:100D90000B2EBA2FA02D0B01B90190010C01CA0135
:100DA000A0011124FF27591B99F0593F50F4503EE0
:100DB00068F11A16F040A22F232F342F4427585FD2
:100DC000F3CF469537952795A795F0405395C9F7EA
:100DD0007EF41F16BA0B620B730B840BBAF09150A2
:100DE000A1F0FF0FBB1F661F771F881FC2F70EC041
:100DF000BA0F621F731F841F48F487957795679514
:100E0000B795F7959E3F08F0B0CF9395880F08F0FF
:100E10009927EE0F9795879508950E94930890F073
:100E20009F3748F4911116F40C94AC0860E070E020
:100E300080E89FE3089526F01B16611D711D811D3A
:100E40000C9426080C9441080E9438070C94600802
:100E50000E94590858F00E94520840F029F45F3F60
:100E600029F00C94200851110C94AC080C944F08F4
:100E70000E94710868F39923B1F3552391F3951BF0
:100E8000550BBB27AA2762177307840738F09F5FAB
:100E90005F4F220F331F441FAA1FA9F335D00E2E18
:100EA0003AF0E0E832D091505040E695001CCAF785
:100EB0002BD0FE2F29D0660F771F881FBB1F261748
:100EC00037074807AB07B0E809F0BB0B802DBF011F
:100ED000FF2793585F4F3AF09E3F510578F00C94EE
:100EE00020080C94AC085F3FE4F3983ED4F3869559
:100EF00077956795B795F7959F5FC9F7880F911D0F
:100F00009695879597F90895E1E0660F771F881FFA
:100F1000BB1F621773078407BA0720F0621B730BAD
:100F2000840BBA0BEE1F88F7E09508950E949D0789
:100F30006894B1110C94AC0808950E94790888F067
:100F40009F5798F0B92F9927B751B0F0E1F0660F8D
:100F5000771F881F991F1AF0BA95C9F714C0B130CE
:100F600091F00E94AB08B1E008950C94AB08672F94
:100F7000782F8827B85F39F0B93FCCF386957795FD
:100F80006795B395D9F73EF49095809570956195E6
:100F90007F4F8F4F9F4F0895E89409C097FB3EF411
:100FA00090958095709561957F4F8F4F9F4F9923B6
:100FB000A9F0F92F96E9BB279395F6958795779534
:100FC0006795B795F111F8CFFAF4BB0F11F460FFF4
:100FD0001BC06F5F7F4F8F4F9F4F16C0882311F04C
:100FE00096E911C0772321F09EE8872F762F05C060
:100FF000662371F096E8862F70E060E02AF09A95FB
:10100000660F771F881FDAF7880F9695879597F9EF
:1010100008950E94930890F09F3748F4911116F0BC
:101020000C94AC0860E070E080E89FEB089526F433
:101030001B16611D711D811D0C9426080C9441081E
:1010400097F99F6780E870E060E00895882371F465
:10105000772321F09850872B762F07C0662311F451
:1010600099270DC09051862B70E060E02AF09A9588
:10107000660F771F881FDAF7880F9695879597F97F
:1010800008959F3F31F0915020F4879577956795AB
:10109000B795880F911D9695879597F908959FEFBD
:1010A00080EC089500240A941616170618060906FF
:1010B000089500240A9412161306140605060895CE
:1010C000092E0394000C11F4882352F0BB0F40F456
:1010D000BF2B11F460FF04C06F5F7F4F8F4F9F4F96
:1010E000089557FD9058440F551F59F05F3F71F018
:1010F0004795880F97FB991F61F09F3F79F087957F
:101100000895121613061406551FF2CF4695F1DF07
:1011100008C0161617061806991FF1CF8695710597
:101120006105089408950E947908A0F0BEE7B917F8
:1011300088F4BB279F3860F41616B11D672F782FEF
:101140008827985FF7CF869577956795B11D93951A
:101150009639C8F30895E894BB2766277727CB0113
:1011600097F908950E94C5080C9460080E945208DF
:1011700038F00E94590820F0952311F00C942008B3
:101180000C944F0811240C94AC080E94710870F361
:10119000959FC1F3950F50E0551F629FF001729F1C
:1011A000BB27F00DB11D639FAA27F00DB11DAA1F2B
:1011B000649F6627B00DA11D661F829F2227B00D78
:1011C000A11D621F739FB00DA11D621F839FA00D03
:1011D000611D221F749F3327A00D611D231F849F53
:1011E000600D211D822F762F6A2F11249F575040AA
:1011F0009AF0F1F088234AF0EE0FFF1FBB1F661F25
:10120000771F881F91505040A9F79E3F510580F0ED
:101210000C9420080C94AC085F3FE4F3983ED4F3A0
:10122000869577956795B795F795E7959F5FC1F791
:10123000FE2B880F911D9695879597F90895F89440
:02124000FFCFDE
:0212420007059E
:00000001FF
